:040000050800426D40
:020000040800F2
:10000000008C00246D420008C3A000084142000893
:10001000414200084142000841420008000000003F
:10002000000000000000000000000000CD3E0008BD
:100030004142000800000000793E0008F15A000823
:10004000713F0008713F0008713F0008713F0008D0
:10005000713F0008713F0008713F0008713F0008C0
:10006000713F0008713F0008713F0008713F0008B0
:10007000713F0008713F0008713F0008713F0008A0
:1002C000713F0008713F0008713F0008FFFFFFFF0A
:1002D00081F0004102E000BF83F0004330B54FEAF7
:1002E00041044FEA430594EA050F08BF90EA020F64
:1002F0001FBF54EA000C55EA020C7FEA645C7FEAF7
:10030000655C00F0E2804FEA5454D4EB5555B8BF19
:100310006D420CDD2C4480EA020281EA030382EA8A
:10032000000083EA010180EA020281EA0303362D1C
:1003300088BF30BD11F0004F4FEA01314FF4801CEF
:100340004CEA113102D0404261EB410113F0004F01
:100350004FEA03334CEA133302D0524263EB4303B8
:1003600094EA050F00F0A780A4F10104D5F1200E56
:100370000DDB02FA0EFC22FA05F2801841F10001B1
:1003800003FA0EF2801843FA05F359410EE0A5F185
:1003900020050EF1200E012A03FA0EFC28BF4CF0B6
:1003A000020C43FA05F3C01851EBE37101F000456C
:1003B00007D54FF0000EDCF1000C7EEB00006EEB79
:1003C0000101B1F5801F1BD3B1F5001F0CD3490803
:1003D0005FEA30004FEA3C0C04F101044FEA44525A
:1003E00012F5800F80F09A80BCF1004F08BF5FEAE1
:1003F000500C50F1000041EB045141EA050130BDC1
:100400005FEA4C0C404141EB0101013C28BFB1F5D2
:10041000801FE9D291F0000F04BF01460020B1FA1D
:1004200081F308BF2033A3F10B03B3F120020CDAF0
:100430000C3208DD02F1140CC2F10C0201FA0CF0CE
:1004400021FA02F10CE002F11402D8BFC2F1200C33
:1004500001FA02F120FA0CFCDCBF41EA0C019040E9
:10046000E41AA2BF01EB0451294330BD6FEA040432
:100470001F3C1CDA0C340EDC04F11404C4F120021D
:1004800020FA04F001FA02F340EA030021FA04F32F
:1004900045EA030130BDC4F10C04C4F1200220FA86
:1004A00002F001FA04F340EA0300294630BD21FAC4
:1004B00004F0294630BD94F0000F83F4801306BF8A
:1004C00081F480110134013D4EE77FEA645C18BF7E
:1004D0007FEA655C29D094EA050F08BF90EA020F15
:1004E00005D054EA000C04BF1946104630BD91EA0D
:1004F000030F1EBF0021002030BD5FEA545C05D110
:100500004000494128BF41F0004130BD14F580044E
:100510003CBF01F5801130BD01F0004545F0FE41C2
:1005200041F470014FF0000030BD7FEA645C1ABFF7
:10053000194610467FEA655C1CBF0B46024650EA2E
:10054000013406BF52EA033591EA030F41F400215A
:1005500030BD00BF90F0000F04BF0021704730B5E0
:100560004FF4806404F132044FF000054FF00001B5
:1005700050E700BF90F0000F04BF0021704730B576
:100580004FF4806404F1320410F0004548BF40424B
:100590004FF000013EE700BF42004FEAE2014FEAA0
:1005A00031014FEA02701FBF12F07F4393F07F4F7B
:1005B00081F06051704732F07F4208BF704793F07E
:1005C0007F4F04BF41F40021704730B54FF4607491
:1005D00001F0004521F000411CE700BF50EA010294
:1005E00008BF704730B54FF000050AE050EA01023D
:1005F00008BF704730B511F0004502D5404261EBAD
:1006000041014FF4806404F132045FEA915C3FF4ED
:10061000D8AE4FF003025FEADC0C18BF03325FEA8A
:10062000DC0C18BF033202EBDC02C2F1200300FA3B
:1006300003FC20FA02F001FA03FE40EA0E0021FA60
:1006400002F11444BDE600BF70B54FF0FF0C4CF44E
:10065000E06C1CEA11541DBF1CEA135594EA0C0F00
:1006600095EA0C0F00F0DEF82C4481EA030621EA3B
:100670004C5123EA4C5350EA013518BF52EA033576
:1006800041F4801143F4801338D0A0FB02CE4FF028
:100690000005E1FB02E506F00042E0FB03E54FF058
:1006A0000006E1FB03569CF0000F18BF4EF0010E50
:1006B000A4F1FF04B6F5007F64F5407404D25FEA4C
:1006C0004E0E6D4146EB060642EAC62141EA5551FF
:1006D0004FEAC52040EA5E504FEACE2EB4F1FD0C41
:1006E00088BFBCF5E06F1ED8BEF1004F08BF5FEABF
:1006F000500E50F1000041EB045170BD06F0004671
:1007000046EA010140EA020081EA0301B4EB5C041D
:10071000C2BFD4EB0C0541EA045170BD41F4801115
:100720004FF0000E013C00F3AB8014F1360FDEBF3A
:10073000002001F0004170BDC4F10004203C35DA16
:100740000C341BDC04F11404C4F1200500FA05F399
:1007500020FA04F001FA05F240EA020001F000423A
:1007600021F0004110EBD37021FA04F642EB0601B0
:100770005EEA430E08BF20EAD37070BDC4F10C04DA
:10078000C4F1200500FA04F320FA05F001FA04F29E
:1007900040EA020001F0004110EBD37041F100018A
:1007A0005EEA430E08BF20EAD37070BDC4F1200595
:1007B00000FA05F24EEA020E20FA04F301FA05F2FD
:1007C00043EA020321FA04F001F0004121FA04F2A5
:1007D00020EA020000EBD3705EEA430E08BF20EA75
:1007E000D37070BD94F0000F0FD101F000464000AF
:1007F00041EB010111F4801F08BF013CF7D041EA31
:10080000060195F0000F18BF704703F00046520034
:1008100043EB030313F4801F08BF013DF7D043EA05
:100820000603704794EA0C0F0CEA135518BF95EABB
:100830000C0F0CD050EA410618BF52EA4306D1D142
:1008400081EA030101F000414FF0000070BD50EA61
:10085000410606BF1046194652EA430619D094EAEB
:100860000C0F02D150EA013613D195EA0C0F05D1D5
:1008700052EA03361CBF104619460AD181EA030129
:1008800001F0004141F0FE4141F470014FF00000E1
:1008900070BD41F0FE4141F4780170BD70B54FF07C
:1008A000FF0C4CF4E06C1CEA11541DBF1CEA1355FC
:1008B00094EA0C0F95EA0C0F00F0A7F8A4EB0504DE
:1008C00081EA030E52EA03354FEA013100F08880D5
:1008D0004FEA03334FF0805545EA131343EA12639E
:1008E0004FEA022245EA111545EA10654FEA002653
:1008F0000EF000419D4208BF964244F1FD0404F50C
:10090000407402D25B084FEA3202B61A65EB030567
:100910005B084FEA32024FF480104FF4002CB6EB24
:10092000020E75EB030E22BFB61A754640EA0C00A4
:100930005B084FEA3202B6EB020E75EB030E22BFE4
:10094000B61A754640EA5C005B084FEA3202B6EB25
:10095000020E75EB030E22BFB61A754640EA9C00E4
:100960005B084FEA3202B6EB020E75EB030E22BFB4
:10097000B61A754640EADC0055EA060E18D04FEA72
:10098000051545EA16754FEA06164FEAC30343EA12
:1009900052734FEAC2025FEA1C1CC0D111F4801FDF
:1009A0000BD141EA00014FF000004FF0004CB6E7D8
:1009B00011F4801F04BF01430020B4F1FD0C88BF77
:1009C000BCF5E06F3FF6AFAEB5EB030C04BFB6EB82
:1009D000020C5FEA500C50F1000041EB045170BD75
:1009E0000EF0004E4EEA113114EB5C04C2BFD4EBA2
:1009F0000C0541EA045170BD41F480114FF0000E26
:100A0000013C90E645EA060E8DE60CEA135594EAA1
:100A10000C0F08BF95EA0C0F3FF43BAF94EA0C0FA4
:100A20000AD150EA01347FF434AF95EA0C0F7FF419
:100A300025AF104619462CE795EA0C0F06D152EA6D
:100A400003353FF4FDAE1046194622E750EA410651
:100A500018BF52EA43067FF4C5AE50EA41047FF462
:100A60000DAF52EA43057FF4EBAE12E74FF0FF3CC7
:100A700006E000BF4FF0010C02E000BF4FF0010C98
:100A80004DF804CD4FEA410C7FEA6C5C4FEA430C11
:100A900018BF7FEA6C5C1BD001B050EA410C0CBF60
:100AA00052EA430C91EA030F02BF90EA020F0020C2
:100AB000704710F1000F91EA030F58BF994208BF29
:100AC00090422CBFD8176FEAE37040F001007047E6
:100AD0004FEA410C7FEA6C5C02D150EA013C07D13D
:100AE0004FEA430C7FEA6C5CD6D152EA033CD3D088
:100AF0005DF8040B704700BF8446104662468C4682
:100B00001946634600E000BF01B5FFF7B7FF0028B4
:100B100048BF10F1000F01BD4DF808EDFFF7F4FFDD
:100B20000CBF012000205DF808FB00BF4DF808ED68
:100B3000FFF7EAFF34BF012000205DF808FB00BF8B
:100B40004DF808EDFFF7E0FF94BF012000205DF8AD
:100B500008FB00BF4DF808EDFFF7CEFF94BF012062
:100B600000205DF808FB00BF4DF808EDFFF7C4FF5B
:100B700034BF012000205DF808FB00BF80F000407A
:100B800002E000BF81F0004142001FBF5FEA410365
:100B900092EA030F7FEA226C7FEA236C6AD04FEA65
:100BA0001262D2EB1363C1BFD218414048404140AA
:100BB000B8BF5B42192B88BF704710F0004F40F45C
:100BC000000020F07F4018BF404211F0004F41F478
:100BD000000121F07F4118BF494292EA030F3FD044
:100BE000A2F1010241FA03FC10EB0C00C3F1200357
:100BF00001FA03F100F0004302D5494260EB4000E6
:100C0000B0F5000F13D3B0F1807F06D340084FEA50
:100C1000310102F10102FE2A51D2B1F1004F40EB45
:100C2000C25008BF20F0010040EA030070474900AD
:100C300040EB0000013A28BFB0F5000FEDD2B0FA4A
:100C400080FCACF1080CB2EB0C0200FA0CF0AABF6D
:100C500000EBC25052421843BCBFD040184370470B
:100C600092F0000F81F4000106BF80F40000013211
:100C7000013BB5E74FEA41037FEA226C18BF7FEAE8
:100C8000236C21D092EA030F04D092F0000F08BF2A
:100C90000846704790EA010F1CBF0020704712F011
:100CA0007F4F04D1400028BF40F00040704712F150
:100CB00000723CBF00F50000704700F0004343F0B5
:100CC000FE4040F4000070477FEA226216BF0846EB
:100CD0007FEA23630146420206BF5FEA412390EAAE
:100CE000010F40F4800070474FF0000304E000BFA4
:100CF00010F0004348BF40425FEA000C08BF704755
:100D000043F0964301464FF000001CE050EA010218
:100D100008BF70474FF000030AE000BF50EA01022D
:100D200008BF704711F0004302D5404261EB41011A
:100D30005FEA010C02BF84460146002043F0B6433F
:100D400008BFA3F18053A3F50003BCFA8CF2083A64
:100D5000A3EBC25310DB01FA02FC634400FA02FC6D
:100D6000C2F12002BCF1004F20FA02F243EB020074
:100D700008BF20F00100704702F1200201FA02FCD6
:100D8000C2F1200250EA4C0021FA02F243EB0200C9
:100D900008BF20EADC7070474FF0FF0C1CEAD0520D
:100DA0001EBF1CEAD15392EA0C0F93EA0C0F6FD0CE
:100DB0001A4480EA010C400218BF5FEA41211ED0AC
:100DC0004FF0006343EA501043EA5111A0FB013198
:100DD0000CF00040B1F5000F3EBF490041EAD3716D
:100DE0005B0040EA010062F17F02FD2A1DD8B3F1E9
:100DF000004F40EBC25008BF20F00100704790F058
:100E0000000F0CF0004C08BF49024CEA502040EAA9
:100E100051207F3AC2BFD2F1FF0340EAC25070476F
:100E200040F400004FF00003013A5DDC12F1190FAD
:100E3000DCBF00F000407047C2F10002410021FA1F
:100E400002F1C2F1200200FA02FC5FEA310040F137
:100E5000000053EA4C0308BF20EADC70704792F0B0
:100E6000000F00F0004C02BF400010F4000F013AE8
:100E7000F9D040EA0C0093F0000F01F0004C02BFE3
:100E8000490011F4000F013BF9D041EA0C018FE752
:100E90000CEAD15392EA0C0F18BF93EA0C0F0AD058
:100EA00030F0004C18BF31F0004CD8D180EA01007E
:100EB00000F00040704790F0000F17BF90F0004F17
:100EC000084691F0000F91F0004F14D092EA0C0FF9
:100ED00001D142020FD193EA0C0F03D14B0218BF8C
:100EE000084608D180EA010000F0004040F0FE40D2
:100EF00040F40000704740F0FE4040F4400070476E
:100F00004FF0FF0C1CEAD0521EBF1CEAD15392EAEC
:100F10000C0F93EA0C0F69D0A2EB030280EA010CDC
:100F200049024FEA402037D04FF0805343EA111175
:100F300043EA10130CF000408B4238BF5B0042F1D3
:100F40007D024FF4000C8B4224BF5B1A40EA0C0078
:100F5000B3EB510F24BFA3EB510340EA5C00B3EBAA
:100F6000910F24BFA3EB910340EA9C00B3EBD10F98
:100F700024BFA3EBD10340EADC001B0118BF5FEAEA
:100F80001C1CE0D1FD2A3FF650AF8B4240EBC25013
:100F900008BF20F0010070470CF0004C4CEA5020D4
:100FA0007F32C2BFD2F1FF0340EAC250704740F423
:100FB00000004FF00003013A37E792F0000F00F015
:100FC000004C02BF400010F4000F013AF9D040EA93
:100FD0000C0093F0000F01F0004C02BF490011F427
:100FE000000F013BF9D041EA0C0195E70CEAD1531F
:100FF00092EA0C0F08D142027FF47DAF93EA0C0F06
:101000007FF470AF084676E793EA0C0F04D14B02E9
:101010003FF44CAF08466EE730F0004C18BF31F09B
:10102000004CCAD130F000427FF45CAF31F0004395
:101030007FF43CAF5FE700BF4FEA4002B2F1FE4FE2
:101040000FD34FF09E03B3EB12620DD94FEA00238A
:1010500043F0004310F0004F23FA02F018BF404263
:1010600070474FF00000704712F1610F01D142024A
:1010700005D110F0004008BF6FF0004070474FF0FE
:101080000000704742000ED2B2F1FE4F0BD34FF07A
:101090009E03B3EB126209D44FEA002343F00043EE
:1010A00023FA02F070474FF00000704712F1610F11
:1010B00001D1420202D14FF0FF3070474FF00000E3
:1010C000704700BF7BB972B90029BEBF00204FF046
:1010D000004106E008BF00281CBF6FF000414FF040
:1010E000FF3000F075B8ADF1080C6DE904CE0029B1
:1010F00009DB002B1ADB00F0A4F8DDF804E0DDE9E1
:10110000022304B07047404261EB4101002B1BDB1E
:1011100000F097F8DDF804E0DDE9022304B0404276
:1011200061EB4101524263EB43037047524263EB70
:10113000430300F086F8DDF804E0DDE9022304B0A3
:10114000404261EB41017047524263EB430300F0C0
:1011500078F8DDF804E0DDE9022304B0524263EBE5
:101160004303704753B94AB9002908BF00281CBF80
:101170004FF0FF314FF0FF3000F02AB8ADF1080C0E
:101180006DE904CE00F05DF8DDF804E0DDE902234E
:1011900004B07047D0B50C4B002206460F46FFF74F
:1011A00053FA00F017F80446FFF7D4F9074B002272
:1011B000FFF74AFA02460B4630463946FFF78CF8ED
:1011C00000F008F82146D0BD0000F03D0000F041DD
:1011D000704700BF4A0011D212F5001211D20DD58E
:1011E0006FF47873B3EB62520ED44FEAC12343F02D
:1011F000004343EA505323FA02F070474FF00000D7
:10120000704750EA013002D14FF0FF3070474FF085
:101210000000704738B50022002304460D46FFF752
:1012200085FC28B920462946BDE83840FFF7B2BF03
:10123000204605F10041FFF7ADFF404261EB41015F
:1012400038BD2DE9F04786468C460846089E15466F
:1012500074461946002B40F0C2808542B2FA82F2F1
:1012600045D94AB1C2F1200300FA02FC2EFA03F379
:10127000954043EA0C0C94404FEA154EA8B2BCFBD3
:10128000FEF8230C0EFB18CC08FB00F943EA0C43D4
:10129000994528D9EB1808F1FF3704D2994502D9AE
:1012A000A8F102072B44A3EB0903A4B2B3FBFEFC95
:1012B0000EFB1C330CFB00F044EA0344A04214D99B
:1012C0002C190CF1FF3304D2A04202D9ACF1020375
:1012D0002C44241A43EA07401EB1D4400023346052
:1012E0007360BDE8F0874746DDE76346F1E792BBF0
:1012F000431B01214FEA154EAFB2B3FBFEFC200C9D
:101300000EFB1C330CFB07F840EA0343984562D9F7
:10131000EB180CF1FF3004D2984502D9ACF1020071
:101320002B44A3EB0803A4B2B3FBFEFC0EFB1C335F
:101330000CFB07F744EA0344A7424ED92C190CF1E1
:10134000FF3304D2A74202D9ACF102032C44E41BC0
:1013500043EA0040C0E7C2F1200320FA03F19540C0
:1013600090402EFA03F303434FEA154EAFB2B1FBA0
:10137000FEFC0EFB1C10190C0CFB07F841EA0041A7
:10138000884504FA02F422D969180CF1FF3004D21E
:10139000884502D9ACF102002944A1EB08019BB2B7
:1013A000B1FBFEFC0EFB1C110CFB07F743EA0143EB
:1013B0009F420ED9EB180CF1FF3104D29F4202D9A3
:1013C000ACF102012B44DB1B41EA004192E760468D
:1013D000E3E76146F7E76046A3E76346B7E7834282
:1013E00006D916B9002108467BE7C6E900E0F9E70F
:1013F000B3FA83F78FB9834201D3724508D8BEEBA5
:10140000020460EB030301209C461EB9002168E73B
:101410003846FAE7C6E9004CF8E7C7F1200CBB40B4
:1014200022FA0CF41C432EFA0CF120FA0CF3B8400B
:1014300001434FEA14490EFA07F5B3FBF9F81FFA16
:1014400084FE09FB18300B0C08FB0EFA43EA00433C
:101450009A4502FA07F240D9E31808F1FF3004D2A6
:101460009A4502D9A8F102002344A3EB0A0389B2EA
:10147000B3FBF9F809FB183308FB0EFE41EA034100
:101480008E452CD9611808F1FF3304D28E4502D95C
:10149000A8F10203214443EA0040A0FB0298A1EB1B
:1014A0000E014145CE46434602D306D14D4504D2F6
:1014B000B9EB020E68EB04030138002EA6D0B5EBA1
:1014C0000E0261EB030101FA0CFC22FA07F34CEA6D
:1014D0000303F940C6E9003198E74046C5E74346B3
:1014E000D9E700000000000070B505690B464468AC
:1014F0006D691DB12B46BDE870401847026840F683
:10150000C2700A60A2684A60E26803F134048A602B
:1015100000210D4AC3E908011A630C4A08A1D1E968
:101520000001DA601022C3E90A012946204608F0CA
:1015300011FE1021204603F043FF284670BD00BF76
:101540003311600F0000000003000004AFE1000849
:101550004FF4C051014805F035BA00BF802900247E
:101560002DE9F04FF9B0DFF8E4A117461D4638A881
:10157000DAF80060DDE984480AF02CFF002138A881
:1015800005F040FB3CB1B8F1000F04DD42462146B6
:1015900038A80AF023FF7B894FF00009B7F80880CC
:1015A0009844FB689844C84521D80DA938A80AF08A
:1015B00059FF869B23B120220DA9184608F0BFFDD4
:1015C00000232A46394607A800934FF6FF7306F01A
:1015D00084FE044638B90C9F284606F02BFF87424C
:1015E0001BD94FF0FF34204679B0BDE8F08F839BC4
:1015F000A8EB090B829A49469B45284628BF9B4683
:101600005B4607F042FA04460028ECD15A4682991C
:1016100038A8D9440AF0E2FEC5E74FF0FF37DFF8FB
:1016200030910DF1160305AA06A907A806F0A3FE3E
:10163000B0F10008C0F288807BD1BDF816B0BBF1D4
:10164000100F18D1BDF81440202CCAD1234638AA57
:101650000699284607F019FA8046002874D12246D8
:1016600038A90DA806F0D3FE04463A4B1B68834206
:10167000B9D10124D5E7BBF1010F37D1BDF8143042
:10168000202BAED838AA0699284607F0FEF98046E6
:10169000002859D19DF814B0BBF1200F03D94FF0A9
:1016A000FF384746BDE7D9F800302B4F0393039B23
:1016B0009845F4DA1DA80AF08DFE00211DA805F05A
:1016C000A1FA7A681DA857F8081B12680AF086FE6E
:1016D00015A91DA80AF0C6FE5A4638A915A808F093
:1016E00007FD0028DDD008F10108E0E7BBF1200F7D
:1016F00097D17B1C95D0D9F80030BB4216DDBDF8E0
:101700001430B3F5807F7FF46CAF38AA0699284671
:1017100007F0BBF98046B8B9FFB2BDF8143038AA5B
:1017200059460DA8009700F019F806464FF0FF370C
:1017300077E73CB1074B1B68B34218BFDAF800608B
:10174000344650E74FF0010844464CE7F0150024BA
:1017500020D80008681D002424D800082DE9F04F87
:10176000ADF54B7D1F466B4B804627A89DF8506317
:101770008A4691461D680AF0EAFD674B8AAA02A8CC
:1017800053F8364003EBC6035B6802941B681C44A5
:101790003023214609F04DFC68BB029B8A9A134412
:1017A0009C4228D129AA214602A809F056FC10BB68
:1017B0000DF1B00B214602A85A4609F04EFC064630
:1017C000C8B929A809F05CFD029B28909C4212D15F
:1017D0003346324629A927A8CDE9006B0AF074FDEB
:1017E00048B927A805F0A0F928B929A809F048FDAB
:1017F000874228900AD027A80AF0B3FD27A80AF04C
:10180000B0FD28460DF54B7DBDE8F08FB7F5807F24
:1018100002D04FF0FF35F1E7BAF1200FF9D18AAAD3
:10182000494627A805F0A6F904460028F1D19DF8FD
:101830002733BC2BEDD152AFDF2603903D460CA8D9
:10184000B1460AF0C7FD00210CA805F0DBF9202203
:101850000DF207310CA80AF0C1FD042203A90CA85F
:101860000AF0BCFD04A90CA80AF0FCFD202E9DF88E
:101870000F303846A8BF4FF0200904A90133A6EB6A
:1018800009064A468DF80F3008F059FC002E4F44E7
:10189000D5DC2F468AAB294600220878013213F89E
:1018A000016BDF2A80EA060001F8010BF5D12B78E5
:1018B00003F07F032B7017F8016B002EA9D10134C0
:1018C000BE2CF8D195F8BE30012BA2D10CA80AF09D
:1018D00081FD31460CA805F095F908220F490CA8A6
:1018E0000AF07CFD414620220CA80AF077FD202258
:1018F0000DF207210CA80AF071FD04A90CA80AF04A
:10190000B1FD20220DF2073104A806F080FD054646
:1019100081E700BFF015002424D80008F2DF00089A
:101920007FB50A460969034611F00C0F1CBF21F070
:101930000C0111614FF48070002101900548029163
:1019400000900846CDE90311FFF70AFE07B05DF8E5
:1019500004FB00BF804100242DE9F0411C4D0746E7
:101960001C4B002029461C4C1E6800F083FED5F855
:101970000080202322460021404607F086F8216897
:10198000164B024699421DD12369286803F01003C3
:10199000134317D1E26823899B1813D2D8F8082083
:1019A00093420FD22146FFF7BBFF06460C4B1B6844
:1019B000834207D1286806F08EFC2B6838715B687B
:1019C0003C60BB60286807F05FF83046BDE8F081F6
:1019D0008C1D0024F01500246C1D00243DB8F396E6
:1019E000681D0024BFF36F8F72B6124B4FF0FF32A9
:1019F000C3F88020C3F88420C3F88820C3F88C2063
:101A0000C3F89020C3F89420C3F89820C3F89C2012
:101A1000C3F88021C3F88421C3F88821C3F88C213E
:101A2000C3F89021C3F89421C3F89821C3F89C21EE
:101A3000704700BF00E100E01FB500F07BF806F042
:101A4000FBFC00F06DF9044638B101240C4806F0A7
:101A5000FAFC06F0F2FC00F009F901A8FFF77CFFA0
:101A6000084B1B689842F0D106F0EAFC204600F0D3
:101A700085F907F07CFA01A800F006F8FEE700BF40
:101A800008E10008681D0024F7B5044601A90079A3
:101A900006F019FC019BA5681D4423681C8909F008
:101AA00035F9FFF79FFF224A00232E19C2F8843030
:101AB000BFF34F8F536923F480335361BFF34F8FCC
:101AC000D2F8803043F6E077C3F3C900C3F34E3356
:101AD0005B0103EA070E01464EEA817C0139C2F838
:101AE00074C2F9D2203B13F1200FF2D1BFF34F8F14
:101AF000BFF36F8FBFF34F8FBFF36F8F5369002713
:101B000023F400335361C2F85072BFF34F8FBFF319
:101B10006F8F02F0C1FB2B5983F3088887F3148879
:101B2000BFF36F8FBFF36F8F7368984703B0F0BD3B
:101B300000ED00E010B5074C20460AF016FD20B17C
:101B4000A36800212046DB689847BDE81040FFF7F6
:101B5000FFBC00BFF4D000080448642208B58368C5
:101B600011461B689847002008BD00BFDCD0000864
:101B7000052908B507D14FF4FA720023044805F08F
:101B800009FE002008BD4B1E58425841FAE700BF2D
:101B9000701A002408B5054B18688368DB6C9847F9
:101BA0000348BDE8084005F047BC00BFF815002415
:101BB000541A002430B58BB020220C46002102A814
:101BC00008F0C8FA264B01A95D68287800F052FD9C
:101BD000014680BB202302AA019806F056FF019817
:101BE00006F052FF1F4B029A9A422FD1BDF81C30CB
:101BF00000222386089B0021C4E90832AB6800223A
:101C0000343444F8303CEB6844F82C3C4FF48063A7
:101C100024F8023C144B44F8283C002344E90323F5
:101C20001022204608F096FA1021204603F0C8FB47
:101C300000200BB030BD0222002104F1300008F07A
:101C400089FA00220023C4E90823CBE702220021FD
:101C500004F1300008F07EFA00231A46CBE700BFFB
:101C60006CD100083DB8F39616E100082DE9F04765
:101C7000224C234FD4F800A0DFF888803B78DAF8B4
:101C80000850D8F8006083BBD6F8089006F0D6FB61
:101C90000146504604F080F858B11B4806F0D3FBCB
:101CA0004FF0FF324FF0FF331848BDE8F04705F022
:101CB000E9BBD9F82030304615499847D9F81C308F
:101CC0001449304698470121404601F079FBEB6A00
:101CD0000321206898476B6A0321206898470E49C2
:101CE0000E480AF0ABFD01233B702B6D206898472E
:101CF0000028D5D16B6820689847D1E7F8150024F3
:101D000080420024F41500241DE10008541A002428
:101D1000711B0008B51B0008951B0008701A0024F1
:101D200000B589B020220021684608F013FA20226D
:101D30000021684608F00EFA0C48202269468368A4
:101D40001B6898470A48DDE9052106F07CFB094B32
:101D5000059A9A4207D10698074BC31A5842584130
:101D600009B05DF804FB0020FAE700BFC4D000080A
:101D700035E100081E49754090CAF1F110B588B0F0
:101D8000044620220021684608F0E4F920220021C0
:101D9000684608F0DFF90D4A40F6C2730C48694600
:101DA000CDE9002303230B4AADF8083000238DF85A
:101DB0000A30094B0393094B002C18BF134620220D
:101DC000049383685B68984708B010BDFC40E52425
:101DD000C4D0000829D3580926418D0BA1CD479BBB
:101DE000014B1B68184700BFFC150024014B18600D
:101DF000704700BFFC15002407B50B4600210246C2
:101E00000348009100F006F803B05DF804FB00BF42
:101E1000E11D00082DE9F04F814695B08B4617462D
:101E20001C460025387808B9284658E37B1C25282D
:101E3000039306D05946C8470028C0F250830135A5
:101E4000FBE1182200210EA808F084F97B78252BED
:101E50007DD00023781C98469E469C461E4601462F
:101E600010F8012B2B2A00F0A18000F29880202A84
:101E700000F09F80232A00F09F802BB19DF8403016
:101E800043F040038DF84030B8F1000F05D09DF8C5
:101E9000403043F020038DF84030BEF1000F05D0F4
:101EA0009DF8403043F010038DF84030BCF1000F36
:101EB00005D09DF8403043F008038DF840302EB136
:101EC0009DF8403043F004038DF840309DF84030D9
:101ED00003F04400442803D16FF386138DF840309B
:101EE0009DF840302A2A43F080038DF840307FD19E
:101EF0009DF841204B1C42F001028DF841201A78D8
:101F00002E2A9DF841200CBF0121002161F34102DE
:101F10008DF8412078D15A782A2A6ED001330022D8
:101F20004FF00A0C194611F8010BA0F13006092EEA
:101F300040F295809DF840101292C1F3400040EAB3
:101F4000D2700A4660F341028DF840205CE0BA1C72
:101F50008DF8433003929DF84130DA0740F12E812D
:101F600054F8048BB8F1000F07DA9DF84020C8F14F
:101F7000000842F004028DF840205E0740F12781FE
:101F800054F804ABBAF1000F80F226819DF841307D
:101F90006FF341038DF841304FF0FF3A1CE12D2AD9
:101FA0000DD0302A7FF469AF012358E74FF0010CC0
:101FB00055E74FF0010E52E74FF001084FE70126B9
:101FC0004DE70EFB02620346303A184610F8016BEB
:101FD000A6F1300CBCF1090FF3D999428FD09DF8CE
:101FE00040101192D20F62F341018DF8401086E744
:101FF0000B4600224FF00A0EE7E79DF8412002331E
:1020000042F004028DF841201A786C2A47D02BD870
:10201000682A31D06A2A4BD04C2A51D01A4612F87D
:10202000013B782B03928DF843309DF8412000F25C
:10203000BE806D2B51D8692B00F2B980572B67D821
:10204000412B03D0453B022B00F2B1809DF842307A
:10205000042262F302038DF84230012373E00CFB8B
:1020600002020B46303A5DE7742A25D07A2AD5D190
:102070009DF8412006210CE05A78682A9DF84120FD
:1020800006D1012161F3C60202338DF84120C5E774
:10209000022161F3C6028DF841200133BEE75A7870
:1020A0006C2A9DF8412001D10421EBE70321F0E7E0
:1020B0009DF841200521ECE79DF841200721E8E744
:1020C000BDF8402022F4F04222F0020242F48042A5
:1020D00042F00202ADF84020DFE76E3BD9B20123A7
:1020E0008B4040F282410B4237D113F0240F51D183
:1020F000D8075CD59DF84230032161F302038DF8C7
:10210000423002F07803A3F140014B424B411AE008
:10211000A3F158010120C9B200FA01F111F4624F94
:1021200094D140F6010631421DD111F4043F3ED056
:102130009DF8423060F3020302F078028DF84230DD
:10214000402A34D000239DF84020C2F340010B43C5
:1021500063F341028DF84020FDE69DF842300221F4
:1021600061F30203E8E79DF84210022002F07802D2
:1021700060F30201402A8DF8421002BF9DF8401022
:1021800041F001018DF84010632BDBD1131E18BF05
:102190000123D8E79DF84230032112F0780F61F354
:1021A00002038DF8423014BF01230023CBE79DF8D2
:1021B000403043F001038DF84030C3E79DF94020E3
:1021C000002AB4BFDDF844804FF0FF38D5E6980709
:1021D0007FF5E2AEDDF848A000239DF84110CDE97F
:1021E00011339DF84230C1F3C30103F00703012B03
:1021F00033D1CB1E042B04D8DFE803F0214646215F
:102200002100236801294FEAE372CDE90E321CD187
:102210009DF93830DA17CDE90E3204349DF840309C
:1022200013F0030650D0039B3A465946484606F041
:1022300011FC0028C0F253810544039FF2E554F8D5
:10224000043BDA17CDE90E32E8E70229E5D11AB2EC
:1022500043F3C033CDE90E23DFE7022B24D1CB1E9D
:10226000042B04D8DFE803F0181010181800012917
:1022700054F8043B4FF0000214D00229CDE90E328D
:10228000CCD19BB20E93C9E7073424F00704F4E8DD
:102290000223CDE90E23C1E754F8043B0E9300233B
:1022A0000F93BBE7DBB2CDE7042B08D1073424F052
:1022B0000704D4E900230834CDE90E23AEE7032B4D
:1022C000ACD154F8043BDDE79DF843007828B4D83E
:1022D00062281CD825283FF4ADAD5828ADD10DF1AA
:1022E000360310AA009308ABDDE90E0106F06CFB83
:1022F000BAF1000F074680F29A80002F9DD00DF1B1
:102300003603D81B002E00F0C1800130BEE06338D8
:10231000152892D801A252F820F000BFF12300083E
:10232000032400083B2200083B2200083B2200084F
:102330003B220008032400083B2200083B2200083F
:102340003B2200083B2200089124000829240008B1
:102350004F2400083B2200083B2200087523000898
:102360003B220008292400083B2200083B220008E9
:1023700029240008BAF1000F0E9F35DB514638467C
:1023800007F0ADFE07EB000A002F3FF456AF002622
:102390009DF8423013F01002059200F09380023055
:1023A0005B06119A48BF129B1044049248BFC018A4
:1023B000B8F1000F40F39F809DF84020A8EB000883
:1023C000C2F380035007069300F19580510640F157
:1023D00089803EB159463046C84700287FDB069BBE
:1023E00001351E4630227EE0384607F071FEC9E70F
:1023F0000E9B002608AF0DF1210A01208DF8203038
:10240000C6E7190756BFC3F300132B265E01DDE9AB
:102410000E23002BBFF663AF52424FF02D0663EB45
:102420004303CDE90E235AE7002658E700260DF1B5
:1024300036039DF84020DB1B6FF386129A458DF81A
:1024400040207FF65AAFAAEB0303119355E70E988D
:1024500090B30DF1360310AA0021009308AB06F0EB
:10246000B3FABDF84230BAF1000F074603F0EF03AC
:1024700043F4F04343F01003ADF84230D6DA0028BD
:102480003FF4DBAE0DF136030026181A9A467FE7BB
:102490000E9B07293FF6D1AEDFE801F00C04060CD5
:1024A00008080C0C1D70C8E61D80C6E6EA17C3E9D3
:1024B0000052C2E61D60C0E62E4F0646052007F119
:1024C000050A65E71A0748BF013069E71046079318
:1024D00006925946C8470028DDE9062304DA15B0FC
:1024E000BDE8F08F202243461946013B0029EDDC70
:1024F000454498466D1A2EB159463046C8470028C3
:10250000EDDB01359DF84230DA0601D41B0705D515
:1025100059463020C8470028E1DB0135059B33B11F
:1025200059469DF84300C8470028D8DB0135049E72
:102530002E4405E059463020C8470028CFDB01353E
:10254000731B002BF6DC53463A465946484606F0C4
:1025500081FA0028C3DB0544A844A8EB0503002B3F
:102560007FF76BAE59462020C8470028B7DB0135FE
:10257000F3E700BF71E10008F0B54FF01003EFF38F
:10258000118083F31288BFF36F8F344B5A6912F4B2
:10259000003211D1BFF34F8FBFF36F8FC3F85022BA
:1025A000BFF34F8FBFF36F8F5A6942F400325A6105
:1025B000BFF34F8FBFF36F8F284A5369D90327D4D6
:1025C000536913F4803323D1C2F88430BFF34F8FA3
:1025D000D2F8803043F6E075C3F3C904C3F34E3339
:1025E0005B0103EA0507214647EA81760139C2F813
:1025F0006062F9D2203B13F1200FF2D1BFF34F8F6D
:10260000536943F480335361BFF34F8FBFF36F8F30
:1026100080F31188BFF36F8F114B124A1A60124B6F
:10262000DA6822F0070242F00202DA609A6942F4A4
:1026300040429A619A699204FCD50C4B1A6841F2A7
:102640000303B3EB124F06D1094AD2F8083143F025
:102650000103C2F808310020F0BD00BF00ED00E02A
:10266000A01900240090D003004802580010005C1C
:1026700000800051114B70B51C680D46DCB1104B49
:10268000196800238B4202DB6FF0010070BD224607
:1026900012F8106B864202D001331446F2E7E0686C
:1026A00010B96FF01200F1E709F05FFF0028F8D0D1
:1026B00000202C60EAE76FF00C00E7E7001600242A
:1026C00050D800082DE9FF47056916461F46804689
:1026D0004168D5E90223DDE90C9A12F5807443F1D3
:1026E0000000B442B8410AD26FF008042748CDE98F
:1026F000006705F0A8FE204604B0BDE8F0870B7C1B
:10270000002B38D0488A03A9C0B2FFF7B3FF0446B4
:102710000028F0D12B7C002B35D053464A46314659
:10272000039806F0C7F9431D044626D153464A468E
:102730003146039806F077FA08BBD5E90223C5E9CC
:10274000022339463046FEF7E1FA06462868FEF7CE
:10275000CBFA01463046FEF7D3FB0D49FEF71CFBD2
:10276000FEF76AFC03210246404606F0F1F90398A1
:1027700006F08AF9BFE70888C5E70028DDD1002404
:1027800032463B46DBE76FF00404F0E793E10008D4
:102790000000C84273B50569044600220A4905F1E4
:1027A000100630460AF0C7F96A680A236C6422EA08
:1027B000E27282FB03233046CDE9002305F092FC50
:1027C000002002B070BD00BFC58E0008314BD3F8A9
:1027D000801080B3304A0A43C3F880202F4AD3F8D0
:1027E00084100A43C3F88420D3F8882042F04A7248
:1027F000C3F888202A4AD3F890100A43C3F89020DF
:10280000D3F8942042F0407242F49B72C3F89420B3
:10281000244AD3F898100A43C3F89820D3F88C20A0
:1028200042F00802C3F88C201F4AD3F89C100A43D8
:10283000C3F89C2070471D4A0A40C3F880201C4AF8
:10284000D3F884100A40C3F88420D3F8882022F0FB
:102850004A72C3F88820174AD3F890100A40C3F888
:102860009020D3F8942022F0407222F49B72C3F897
:102870009420114AD3F898100A40C3F89820D3F84E
:102880008C2022F00802C3F88C200C4AD3F89C104C
:102890000A40CDE700440258238000027102030081
:1028A000FFC3FFEAF3305740A8DE2004DC7FFFFDC2
:1028B0008EFDFCFF003C00150CCFA8BF5721DFFBAD
:1028C00002888B8B9A4205D08CBF01230023024AD9
:1028D000D056704700207047F9E1000810B5114448
:1028E000064C8A4200D110BD12F8013B83EA102346
:1028F00034F8133083EA002080B2F2E7ECDD000800
:102900002DE9F04F8FB007468946DDE91845CDE93E
:102910000A23002900F07981002800F07681002C3C
:1029200000F073811A9B13B9002D40F06E817B6813
:10293000072B3CD9402B3CD8B54AD35CB54AD35C75
:102940000493049B6278013B99F804100393002AD6
:1029500042D12379FF2B40F058816688B6F5005F9D
:1029600080F053810B0626D446F4C04041EA002093
:102970002378072B00F2498140EA83630398B96802
:102980000993854263793A68089305F101036DD88C
:102990009F488A42C35C9F48C45CA4EB050606F1CD
:1029A000FF363AD86FF002000FB0BDE8F08F082371
:1029B000C6E74023C4E7039B9D4200F226811A9A92
:1029C00029464FF6FF70FFF789FF00F07F0040EACD
:1029D000062040F0B070CBE7531E012B00F21581AA
:1029E00094F904302679002BC0F20F816388B3F587
:1029F000007F80F00A81080600F10781A2F1020839
:102A00009803D8F1000240EAC61042EB08020843DE
:102A100040EA026040F00070AAE7DDE90A23099964
:102A20004846009406F01EFB80460028BAD025B127
:102A30002A461A99303007F082FB05F13000324601
:102A400000214444404407F085FB089B724A4146FC
:102A500063F01F0307F10C0084F82F306F4B06F072
:102A600093FBBB6801200133BB609DE7A81C069067
:102A700003980344B3FBF0F30B44934292D8002431
:102A80001A9A29464FF6FF70FFF728FFA346012345
:102A90008246264605940793069BB34218D8059DA7
:102AA000BBF1000F00F0AE8007F10C06DFF86C916F
:102AB000DFF8648129464B464246304606F064FB07
:102AC0002D69002DF6D1BB6820462344BB606BE71F
:102AD000069B4846099901349A1B039B934289BF80
:102AE0004B4BDDF810809B184A4A84BF5B7812F884
:102AF0000380DDE90A23CDF8008006F0B3FA059AD9
:102B00000346002A62D0CBF81000002B71D0B542EA
:102B100008F1FF3B5CD9AA1B03F130001A995A4512
:102B20000C9328BF5A460D9207F009FB0D9A1A9B89
:102B300016441344B5421A930C9B28D802F12F0176
:102B40006FF02C0C1944ACEB030C0CEB0100584556
:102B500040D3A8F10308911CA8EB02088B4538BFAD
:102B60004FF000084244934511D9B54208D1991855
:102B700001324FEA1A206E1C934581F8300006D9C5
:102B8000B5423FBF99180136013281F830A008994B
:102B90001A4407989B4601F01F0141EA401105982D
:102BA000A3EB000CDCF1000040EB0C0041EAC0118B
:102BB0000698B0428CBF0020012041EA801182F8C3
:102BC0003010079A82F00102079265E705909CE7B2
:102BD0000022B3E74FF00000DFF844E001F8010FF6
:102BE000CAF30F203EF8100080EA0A201FFA80FA8C
:102BF000ABE79B4653E72C692946D9F80C30484689
:102C000025469847002DF6D1CCE66FF00100CBE6C3
:102C1000FBE100083CE200089D900008639000087A
:102C2000ECDD00082DE9F04F89B09B4614460746BD
:102C3000129B9DF84C80149E60B15EB153B1D3F8E5
:102C400000A0BAF1005F05D2D3E90159B9F1000F34
:102C500003D145B16FF0010506E02022002168464E
:102C600007F078FA25B90025284609B0BDE8F08FAD
:102C70004FEA9A631AF0007F0AF080728DF80830EC
:102C80000AF07F03CDE9004B8DF80C3040F0C28094
:102C9000002ACAF30C2118BFFF231AF0801FADF8D9
:102CA0000A104FF0FF010CBF012200228DF80C30FA
:102CB000013D8DF80D10CDE9055919F8053003F0E7
:102CC0001F00C3F3801C4FFA83FE8DF80E00D80955
:102CD0008DF810C003F0200C8DF80F0003F04000B9
:102CE000C3F340138DF81130002ABCD0BEF1000FA1
:102CF00080F2A580BCF1000FB5D028B99DF80C304A
:102D0000FF2BB0D0062DAED9FF2902D03B798B42E4
:102D1000A9D19DF809000023A44A0DF10A0104304D
:102D200007EB800006F030FA159B814603B118606E
:102D3000B9F1000F97D09DF90C209DF80C30002AB6
:102D4000C0F20F8109EB83035C6AF4B99DF80F3080
:102D5000DBB1BB682021384698479DF80C3009EB61
:102D600083035862002879D0046180F81780DDE978
:102D70000023C0E90244C0E900234FF6FF738382B9
:102D80009DF80E3083750123037600259DF80C30E5
:102D900009EB83035C6A002C3FF466AFDDE90010A9
:102DA000D4E90023D9E904C58A42D9F8189073EB15
:102DB000000E06D28A1A60EB0303944575EB0303F9
:102DC00013D39DF80E30A27DD21A002A93B2ACBF65
:102DD000D3B22033E27DB8BFDBB2424541D19DF88A
:102DE0000F20002A3DD0012B3BD9002384F8178007
:102DF000C4E902334FF6FF73A3829DF80E30A3752A
:102E0000012323769DF80F305BBB2146384606F040
:102E10004DF928E7002ACAF3C61114BF0222012285
:102E20001AF4000F8DF80920CAF38832ADF80A2091
:102E300003D15A1A18BF01223AE7002238E79DF859
:102E40000C30FF2B3FF40FAF062D3FF65DAF00288F
:102E50003FF409AF002D3FF406AF55E76FF00205D0
:102E600094E794F817E09DF811C0C645257E9DF8BB
:102E70000E20A37D7FF4F7AEAC457FF4F4AE9A420A
:102E80007FF4F1AE9DF80F30002B52D10025A08ABF
:102E9000DDE90512FFF722FDA082A3682069DDE9C4
:102EA00005A85344A36048B9B9F1000F15D0BB6819
:102EB0004946384698472061002846D0E368414695
:102EC0000AEB03021844914538BFA9EB030A5246A6
:102ED00007F035F9E3685344E3609DF81030002BA8
:102EE0003AD00DB9A38AFBB99DF80C30BDF80A2081
:102EF0003371BDF808109DF80E3031807280737107
:102F0000D4E90023C6E90223E368336122697261D0
:102F10003DB9D4E90221521A012A9EBF023B9B18F7
:102F200033610023012523612146384606F0BEF8AF
:102F30009AE6C4E900109DF80F30002BA6D09DF84A
:102F40001030002BA2D00125A7E72146384606F015
:102F5000ADF86FF0020587E6237E83F00103237648
:102F600081E6D9F818303846059C9C4228BF1C469B
:102F7000BB68214698470028EBD09DF80C30BDF87F
:102F80000A2033719DF80E30BDF8085072807371BD
:102F9000358001250699DDE90023C6E90440C6E92C
:102FA0000223224607F0CBF85EE600BFC1280008E6
:102FB000F7B5064648B3022927D80431ADF80620F4
:102FC0000023134A00EB81050DF10601284606F0A7
:102FD000DBF80446B8B101460027284604F1200575
:102FE00004F5087406F079F855F8041FF36801B188
:102FF000096930469847F368296830469847A542E2
:103000002F60F1D1012003B0F0BD6FF00100FAE7AD
:10301000C12800082DE9F8430A9D0E4690469946BE
:10302000074628B325B3022922D8FFF7C1FF041EA3
:103030001BDB0021C5F81890A5F81C80DDE90823EA
:10304000C5E9042305F1200305F5087243F8041FC0
:103050009342FBD1B4FA84F40436074B2946640941
:10306000064A07EB860006F08FF82046BDE8F88395
:103070006FF00104F9E700BF63900008D5900008E5
:1030800037B5144628B322B3136821B90BBB1D46CC
:103090001149002203E0DD00072DFAD90A78012B3F
:1030A00000F8022B01F1010101AA94BFDB1A03F120
:1030B000FF33019300F0DCF8002808DB019B0020BF
:1030C000DB000833AB4228BF2B46DB08236003B08C
:1030D00030BD6FF00100FAE7B9EA00082DE9F341CD
:1030E0000F4615468046002840D0002A3ED014687E
:1030F00029B9002C3AD126461E4F002303E0E600F2
:10310000072EFAD90B780022082E88F800304FF0ED
:10311000000307F101016846CDE9002394BFB21B0B
:10312000A6F10802402A28BF4022D20806F0F0FF8C
:10313000092C07F1090108F1100094BF241B093C78
:10314000DDE900230094C8E902236A4600F0B2F8E2
:10315000002808DB009B0020DB004833B34228BF77
:103160003346DB082B6002B0BDE8F0816FF0010050
:10317000F9E700BFB9EA00082DE9FF47884616467F
:10318000074600286BD0002A69D0146829B9002CA2
:1031900065D1DFF8D880002303E0E400072CFAD9DA
:1031A0000B780022082C3B704FF000034FF0000119
:1031B00002A84FF00005CDE9022394BF221BA4F121
:1031C00008020823402A0093434628BF402206F005
:1031D000D1FA482C294602A8DDE90223ADF80850AF
:1031E000C7E9022394BF221BA4F148024823102AF6
:1031F0000093434628BF102206F0BCFABDF8082011
:10320000B2F5807FC7F810212CD8582C4FEAC202A3
:1032100007F11009294694BFA4EB040AA4F1580A47
:10322000924528BF9246D20809EBDA00A2EBDA02F7
:1032300006F090FF582348465246009329464346DD
:1032400006F098FAD7F810312846DB005833A3422D
:1032500028BF2346DB08336004B0BDE8F0876FF079
:103260000100F9E76FF00900F6E700BFB9EA0008CE
:10327000F7B516460746C0B1BAB1136809B9A3B984
:103280000B49DB0000250DF10600102BADF80650B0
:1032900028BF1023DC08224606F03AFFBDF80630AE
:1032A00028463B80346003B0F0BD6FF00100FAE7C0
:1032B000B9EA00082DE9FF478A46164681460028EC
:1032C00042D0002A40D0136819B9002B3CD1DFF856
:1032D00084A04FEAC308002453460DF10E00454672
:1032E00021460094102DADF80E4028BF10252A4627
:1032F00006F0E0FBBDF80E70B7F5807FC9F80071ED
:1033000025D8A8EB0505FF002146BD4228BF3D4654
:10331000FF0809EBD500A7EBD50206F01BFF102331
:1033200048462A4600932146534606F0C3FBD9F887
:1033300000312046DB001033434528BF4346DB08FD
:10334000336004B0BDE8F0876FF00100F9E76FF07B
:103350000900F6E7B9EA00082DE973431546064669
:10336000E0B1DAB1136809B9C3B90E49DB004FF017
:1033700000084FF000096846382B28BF3823DC08C6
:103380002246CDE9008906F0C3FE0020DDE90023D6
:10339000C6E900232C6002B0BDE870836FF0010025
:1033A000F9E700BFB9EA0008044B1B681A8882429B
:1033B00086BF5B6853F82000002070475C1700242C
:1033C000084B10B51C6828B121B121801B685860DA
:1033D000002010BD00226FF0040022801B685A609C
:1033E000F7E700BF5C1700242DE9F043ADF5277D1A
:1033F0000C461646054600AF4FF49472002107F1C3
:10340000200006F0A7FEF36904F110026169384656
:10341000D5F808809847474A3B7812681188994246
:103420005AD9526852F82360D6F80890B9F1000FC3
:1034300052D0326807F5A4703F4901F023F8C7F86D
:103440007C01D9F80030002B46D007F1200130462E
:1034500098473B6A0BB9394B3B62FB6A0BB9374B58
:10346000FB627B6A0BB9354B7B62BB6A0BB9334B92
:10347000BB623A6A07F5A4702F4901F003F82E49A0
:10348000C7F87C0107F51870D7E91023C7E9962320
:10349000FA6A00F0F7FFB7F85230102207F1540132
:1034A000A7F89632B7F85030C7F8800207F28620A6
:1034B000A7F8843206F043FE7A6A07F5C0701E4909
:1034C00000F0E0FFBA6AC7F8B40107F5DC701A49EA
:1034D00000F0D8FFC7F85002E6B04FF4CA720021DE
:1034E00068467A6006F036FE3A1D694607F5A47014
:1034F00006F0F7F823783B7201237B72FA237B8175
:1035000023793B7363795A1C7B73627109F0EFFA7C
:103510007B68C7F81CD0BB61D8F81030C7E904013C
:1035200007F108012846984707F52777BD46BDE80B
:10353000F08300BF5C1700247EE800085CE8000808
:103540002DE9F043D1B0D369D0F8088001F1100221
:1035500005460C460AA8496998479DF82800FFF7D8
:1035600023FF2C4F0646002850D083682BB93A68B9
:1035700093600D23ADF8043015E0D3F808900EA940
:103580000C9B4E9AC8473B68002838D103219E60A7
:10359000ADF804002846D8F82C309847D8F82430E5
:1035A00003212846984702AE0222002130460392AA
:1035B00006F0D0FD03AA314601A806F0BEF8237834
:1035C0008DF8103001238DF81130F923ADF8123049
:1035D00023798DF8143063795A1C8DF81530627197
:1035E00009F085FA039BCDE90601CDE9083604A967
:1035F000D8F810302846984751B0BDE8F083002233
:103600009A6080EAE073A3EBE073B3E73B689860ED
:103610000223AFE75C1700242F4BF0B51B688BB07B
:1036200005460C469F68866802A8D36901F110021E
:1036300049699847002F4AD09DF80800FFF7B4FE6B
:10364000B84244D18368002B43D05A69002A40D045
:10365000BDF80A70002F35D19047736A3946284665
:103660009847F36A394628469847002301AF02225B
:103670000021ADF800303846039206F06BFD03AA36
:103680003946684605F068FF23788DF8103001232D
:103690008DF81130F623ADF8123023798DF81430FF
:1036A00063795A1C8DF81530627109F020FA039B7A
:1036B000CDE90601CDE9083704A9336928469847C2
:1036C0000BB0F0BD9B699847F36A0321CBE7022357
:1036D000CCE70D23CAE700BF5C170024314BF0B5DF
:1036E0001B68D3B005460C469E6887680CA8D36952
:1036F00001F1100249699847002E4ED09DF8301014
:103700000846FFF751FE864247D1B268002A46D0EC
:10371000D368002B43D0022906D0509B59071EBF07
:1037200023F0070308335093509B3046019310ABAE
:103730000093D168DDE90E23884700280CBF0023E1
:10374000052304AE02220021ADF80C30304605926C
:1037500006F000FD05AA314603A805F06DFF2378A9
:103760008DF8183001238DF81930F823ADF81A3090
:1037700023798DF81C3063795A1C8DF81D306271E5
:1037800009F0B5F9059BCDE90801CDE90A3606A98E
:103790003B692846984753B0F0BD0223D1E70D237B
:1037A000CFE700BF5C1700242DE9F043CBB00C46F7
:1037B0000546164600AF4FF48472002107F1200041
:1037C00006F0C8FC294B04F1100261691B683846F9
:1037D000D5F80880D3F80890F3699847B9F1000F3D
:1037E00040D03878FFF7E0FD48453BD18368002B97
:1037F0003AD01B69002B37D007F5927207F12401EC
:103800009847002387F82200C2B040F20512002139
:103810003B8468467A6006F09DFC3A1D694607F1D4
:10382000200006F05CF823783B7201237B72F723BB
:103830007B8123793B7363795A1C7B73627109F036
:1038400056F97B68C7F81CD0BB61D8F81030C7E9BF
:10385000040107F108012846984707F59677BD4609
:10386000BDE8F0830223CFE70D23CDE75C170024EA
:103870002DE9F041DCB00C461646002100AF0546AC
:103880004FF4A87207F12000397006F063FCF36969
:1038900004F1100261693846D5F808809847294B31
:1038A00040F6C2723B620323BB840023C7E90A23AC
:1038B000102107F1300001F083FD234B234A07F16B
:1038C0004000234900F0DEFD7867224806F000FC46
:1038D00050B107F14003786F1E4A18441E4900F0AA
:1038E000D1FD7B6F03447B67D0B040F239120021D9
:1038F00068467A6006F02EFC3A1D694607F1200002
:1039000006F05EF923783B7201237B724FF4D77384
:103910007B8123793B7363795A1C7B73627109F055
:10392000E6F87B68C7F81CD0BB61D8F81030C7E94F
:10393000040107F108012846984707F5B877BD4606
:10394000BDE8F0810100000463E8000870E80008A9
:103950007BE8000881E8000887E80008034904487C
:1039600008B508F03DFF002008BD00BF753900080C
:10397000A01D0024B0B5CCB0044600AF02F034FC6A
:10398000257C02460B4687F828500025C7E9082306
:10399000C7F82C510023254AFDF7E4FB244B0246CF
:1039A000244907F12C0000F06DFDD7F82C3104F10B
:1039B00011022149184407F12C03C7F82C011844BF
:1039C00000F060FDD7F82C31C2B04FF4847203448C
:1039D000294668467A60C7F82C3106F0BBFB3A1DD1
:1039E000694607F1200006F015F8144B144ABB6035
:1039F000FF233B731378591C7B731170114C09F032
:103A000076F87B68C7F81CD0BB61C7E90401206861
:103A1000856808F0AAFD20B12B6907F1080120682C
:103A2000984707F59877BD46B0BD00BF40420F00EC
:103A300063E800088BE800087EE800080600F81F2D
:103A400081420024841700240EB417B505AB044648
:103A5000C821084853F8042B019300F02DFD0648B7
:103A6000436804740BB103F029FE03B0BDE81040B5
:103A700003B07047B11D0024A01D0024F7B5314CE0
:103A80000D46D369684601F1100249699847677885
:103A900094F90160FF0995F804C0DDE90001D4E95B
:103AA000042308D1821ADFF8A0E061EB03039645F6
:103AB00077EB03030CD2D5E90223C4E902236B7927
:103AC000A370012384F801C0C4E9040123702FE02E
:103AD000B4452DD1237895F805E0012B2AD150EA81
:103AE000010327D094F902600136734206F01F06E5
:103AF00003F01F0358BF5E42B6451BD1D4E90256FE
:103B0000451B61EB06062846314602F07FFB4CF26E
:103B100050330E49EB18277046F10002994277EBBB
:103B2000020205D22A46334609490520FFF78CFFD9
:103B300003B0F0BDD5E9022384F802E0C4E9022312
:103B4000BFE700BFC0110024404B4C00A08601001D
:103B500097E800082DE9F04F03689DB0DFF8C4A195
:103B6000002702934368039383680493C368059313
:103B7000036906934369079383690893C369DDE981
:103B8000062C98460993089BDDE904BEDDE9024650
:103B90000093CD590CAB5AF8049B2DBADD514FEA76
:103BA000F223A944009D83EAB213043725EA0205F3
:103BB00083EA7263402F4B4402EA0C0985EA090547
:103BC00006EA0B092B4486EA0B0543444FEA743896
:103BD00005EA040588EAB40885EA090588EAB458C4
:103BE000A84403EB0E05DE464344DDF8008040F0B8
:103BF00089804D494FF0100A0A9151460AF1010A95
:103C00000DF1700E0AF00F0701F00F09BAF1400F25
:103C10000EEB870757F8407C4FEAB748019788EAD0
:103C2000F71801F10E0701F1090107F00F0701F084
:103C30000F010EEB870757F8407C4FEAF74E8EEAEC
:103C4000774ECDF82CE00DF1700E0EEB81010EEBEE
:103C5000890951F8401C59F840EC7144DDF804E042
:103C600088EADE08DDF82CE041448EEA972E05EA6A
:103C700002082CEA050771444FEAF52E87EA080787
:103C8000DDF828808EEAB51E49F8401C8EEA756E74
:103C9000774458F804EF77444FEA733ECDF8288014
:103CA00004EA06080F4400998EEAB30ECDF800C06E
:103CB000394484EA06078EEAB35E07EA030787EA17
:103CC0000807774401EB0B0EB3460F4422D102994B
:103CD0003944016003991944049B23444160836083
:103CE000059B3344C360069B73440361079B2B44CD
:103CF0004361089B13448361099B6344C3611DB006
:103D0000BDE8F08FB346CDF800C0264694461C4669
:103D10002A463EE7944626462A461C4675463B46BA
:103D20006BE700BFA8D80008E4D8000810B5044627
:103D3000C8B17022002106F034F90B4B0B4A0C4934
:103D40000C48C4E900230C4BC4E902130B4BC4E933
:103D500004030B4B0120A36103F17453A3F5230368
:103D6000A3F69243E36110BD85AE67BB67E6096ABF
:103D700072F36E3C7F520E513AF54FA58C68059B4D
:103D8000ABD9831F014910220A60704710ED00E093
:103D900072B6404080F31188BFF36F8FBFF34F8F2F
:103DA00030BF62B6BFF36F8F704700BF00B200280C
:103DB00007DB0123410900F01F00024A834042F85B
:103DC0002130704700E100E000B2013100284FEAE5
:103DD0000111C9B206DB00F1604000F5614080F8D6
:103DE0000013704700F00F00014B1954704700BFDB
:103DF00014ED00E030BFFFF7FDBF00BF0F4A08B56C
:103E000022F07F020E4B9A60BFF34F8FBFF36F8F8C
:103E1000D3F8882022F47002C3F88820EFF31483CB
:103E200023F0040383F31488BFF36F8F03F02EF89D
:103E300003F074FF00F00EFA03F076F800000008BB
:103E400000ED00E0094A0A49936809689867D96754
:103E500008494B6843F080534B60002383F311887B
:103E6000BFF36F8F9368D86F704700BF4429002459
:103E7000D0DD000800ED00E012498A684FF0300004
:103E80001044EFF3098C80E8F01F102080F31288B3
:103E9000BFF36F8F0C4F4FF000668A698A603E60F7
:103EA000906F0023936780F3118804B5104600F0EB
:103EB00027FABDE8044002F1300090E8F01F8CF3CF
:103EC000098870474429002404ED00E01EF0040F27
:103ED0000CBFEFF30880EFF30980816911F8021C31
:103EE0000229FFD001B506F0E4F801BD42F8203CFC
:103EF000203A009B07495360019B21F00101936028
:103F0000029B9161D3604FF08073D36100230265FF
:103F10008367704761840008094A0346906870B15E
:103F200013F1160F806E05D0A0F140029A4205D819
:103F3000834203D2814228BF00207047002070478F
:103F40004429002408B5094B0D461446986000F03A
:103F5000D7F9204685F30988002163B681F31188DB
:103F6000BFF36F8F0022002304F07AFA4429002463
:103F700001B5EFF30580A0F110004FEAC00004493D
:103F8000014409C99847BDE80140024908470000BB
:103F900084D10008993F0008044B996898698842C9
:103FA00003D003494FF080520A607047442900242F
:103FB00004ED00E0264B70B515469A6A064612F0ED
:103FC000100F9A6A14BF1124102412F0080F9A6A75
:103FD00018BF122492070AD5586B9A6A140634D572
:103FE00019B19A6A22F080029A62132401E06FF0FC
:103FF0001500174B9A6A12F0010F9A6A18BF142421
:1040000012F0200F9A6A18BF1524D20602D49B6AB8
:104010009B070AD50E4B5B68190506D53146FFF79D
:104020007BFF10B180F309880224094B9A6A92063B
:1040300003D55A6A22F400525A629A6A204642F024
:10404000FF029A6200232B7070BD6FF01500CCE761
:1040500000ED00E0134B9A6A12F0007F9A6A14BFD9
:104060001E201D2012F0807F9A6A18BF1F2012F4B4
:10407000002F9A6A18BF212012F4802F9A6A18BF65
:10408000222012F4003F9A6A18BF232012F4803FC6
:104090009A6A6FEA024218BF24206FEA12429A62BB
:1040A000704700BF00ED00E0194B024610B5986A5A
:1040B0009C6A10F4805F14BF1720162014F4006F60
:1040C0009C6A18BF1820A40509D5986B986A00044B
:1040D00004D51AB19A6A22F400429A6219200C4B54
:1040E0009A6A12F4806F9A6A18BF1A20D2050CD40B
:1040F0009B6A13F4005F18BF1C20054A936A43F4BF
:104100007F43936200230B7010BD1B20F5E700BFB7
:1041100000ED00E0454B70B55B688AB005460026AF
:10412000C3F3080386F31188BFF36F8F02F07F405B
:10413000B0F17F4F11D102F00C0008280DD010070C
:104140004CBF0D4601260022033B8DF80720032BB0
:1041500005D8DFE803F01E5D615A3546F3E7002419
:104160009DF807309BB92022294602A805F0E7FFF9
:10417000099B002E54D0C3F3080222B96FEA5323DF
:104180006FEA4323099302A9204605F090FF0AB085
:1041900070BD264BDA6A9107E1D4DA6A002ADEDBC9
:1041A000DA6A5200DBD55A69A96942F480725A6111
:1041B000BFF34F8FBFF36F8F5A6931F8021C22F49F
:1041C00080725A61BFF34F8FBFF36F8F4DF602724B
:1041D00091420AD09A6AD2B24AB10DF10702012186
:1041E0002846FFF7E7FE0446BAE72C68B8E79A6A64
:1041F00012F47F4F05D00DF107010120FFF754FFA6
:10420000F1E79B6AB3F5803FA9D3FFF723FFEAE705
:104210000DF107020021E3E70DF107010020EDE7B2
:1042200023F4FF7323F00103ACE700BF00ED00E0CF
:10423000024A536943F010035361704700ED00E0F8
:10424000EFF30880EFF3098101B57246FFF762FFD3
:1042500001BD00BF002304481021C2180133A32B65
:1042600082F80013F9D1704700E100E0102080F3DC
:10427000118808484FF40461401880F30988EFF36F
:1042800014800221084380F31488BFF36F8FFFF777
:10429000B5FD00004072002407490023D1F89020AA
:1042A0001846C2F30722934200DB7047C1F89830EA
:1042B0000133C1F8A000F6E700ED00E0084B9B6871
:1042C00083420BD1EFF3058343B1064B5A6842F0AA
:1042D00080525A605A6A22F400425A6203F0ACBC1F
:1042E0004429002400ED00E0024B0121024A03486A
:1042F00000F070B80000052400000024A8D90008D0
:10430000826E4021044B403A18461A60034AC3E9C2
:104310000112012100F068B87C1E002400000B157A
:10432000F0B500251F4E8D4239DA446874B353B19D
:1043300004F1FF3C14EA0C0F2FD11F2C2DD9076874
:104340001CEA070F29D1202C5FFA82FE0768D0F8FB
:1043500008C01ED9B4F1004F1DD8013CB4FA84F452
:10436000C4F11F046400BEF10F0F4CEA040C14D812
:1043700027F01F04C6F898201443013244F01004BB
:10438000C6F89C404CF00104C6F8A04001350C3042
:10439000C9E70824E7E73E24E5E76FF01502104679
:1043A000F0BD00BF00ED00E0044B0522C3F89420EF
:1043B000BFF34F8FBFF36F8F704700BF00ED00E07A
:1043C000BFF35F8F024B0022C3F89420704700BFF9
:1043D00000ED00E010B5034C01232278FFF7A0FFA9
:1043E000207010BD82420024094A08B500231278CB
:1043F000FFF796FF10F1160F02D0064A0F2800DDD6
:1044000008BDC2F898000130C2F8A030F6E700BF3E
:104410008242002400ED00E014490868102810B51D
:1044200021D8FFF7CDFF124C49680022904201F1DC
:104430000C0105D10F4B18700020FFF7B5FF10BD20
:10444000C4F8982051F80C3C23F01F0313430132A9
:1044500043F01003C4F89C3051F8043C43F00103CE
:10446000C4F8A030E2E74FF0FF30E8E730D80008AA
:1044700000ED00E082420024014B1860704700BF4D
:10448000941700240EB410B587B000246FF00041DB
:1044900009AB0490059104A953F8042B0548009436
:1044A0000393FDF7B7FC049B1C7007B0BDE81040F8
:1044B00003B070476DA1000810B586B009B90DF1C1
:1044C0000F000024CDE90401009404A90348FDF77E
:1044D000A1FC049B1C7006B010BD00BF6DA10008BC
:1044E0002DE9F041054600244FF001084FF0B04699
:1044F0000D4F2B7818191F280FDC08FA00F3D6F897
:10450000882033EA020208D1C6F8883057F83030E4
:104510001BB107EBC0025168984701346B78A34286
:10452000E7DABDE8F08100BF881E0024054B03EBED
:1045300040000023994200DC7047013320F8022B31
:10454000F8E700BFC419002408B52E4B062293F9E2
:10455000011093F90000FFF7E9FF00220620114641
:10456000FFF732FC284B072293F9011093F9000062
:10457000FFF7DCFF002207201146FFF725FC234B45
:10458000082293F9011093F90000FFF7CFFF0022F2
:1045900008201146FFF718FC1D4B092293F9011062
:1045A00093F90000FFF7C2FF002209201146FFF730
:1045B0000BFC184B0A2293F9011093F90000FFF746
:1045C000B5FF00220A201146FFF7FEFB124B17220F
:1045D00093F9011093F90000FFF7A8FF00221720BC
:1045E0001146FFF7F1FB0D4B282293F9011093F9C7
:1045F0000000FFF79BFF002228201146FFF7E4FB95
:10460000002008BDF0190024EE190024EC19002444
:10461000EA190024E8190024E6190024E41900240A
:10462000084B02464FF0B04110B433F9100001239B
:10463000D1F8804093402343C1F8803010BCFFF78D
:10464000B5BB00BFC4190024074B10B5044653F88E
:10465000300028B943F8341003EBC4035A6010BD8E
:104660006FF00F00FBE700BF881E0024034B002201
:1046700043F8302003EBC0035A607047881E0024C3
:10468000044B05489B6A03F00303022B18BF00206C
:10469000704700BF00440258001BB70008B50A4B22
:1046A0001B6903F03803102B0AD0182B0AD1FFF72F
:1046B000E7FF0623B0FBF3F0FA235843400808BD98
:1046C0000248FBE70020F9E700440258001BB7004E
:1046D0000A68102A13D80B4BD340DB070FD5496863
:1046E000CBB2C1F30242C1F3042103F1B0438A40CB
:1046F00003F511331868024300201A6070476FF009
:10470000850070470E04010008B5334B18680B682C
:10471000102B2DD813B96FF0850028E0013B0F2B2B
:10472000F9D801A151F823F0A1470008B1470008CA
:10473000C747000817470008174700081747000831
:10474000174700081747000817470008694700087F
:104750009347000817470008174700081747000845
:10476000174700089B4700081C481060002008BD40
:10477000D42B0CD0D83B1C2BCDD8012101FA03F34C
:1047800017490B4207D140F211110B42C3D0400828
:10479000EBE70020E9E78008E7E7FFF77FFFE4E7C2
:1047A000FFF76EFF0623B0FBF3F0FA235843DCE774
:1047B000FFF766FF0623B0FBF3F0FA235843052307
:1047C000B0FBF3F0D1E7FFF75BFF0623B0FBF3F09C
:1047D000FA235843DBE700BFA0190024001BB700F1
:1047E000001011115D4B37B5D3F8E02042F0007294
:1047F000C3F8E020D3F8E02002F000720192019AA1
:104800001A6822F480221A601A6842F480321A6010
:104810001A689403FCD59A6A22F0030242F002025D
:104820009A629A6A22F47C7242F060029A62DA6AB0
:1048300022F00C02DA62DA6A42F00202DA621A6BE1
:1048400022F4FF7222F0010242F0F9021A63DA6ADE
:1048500022F00102DA621A6B22F47E421A63DA6AEB
:1048600042F48032DA621A6B22F4FE0242F48022B1
:104870001A63DA6A42F40032DA621A6B22F0FE42FC
:1048800042F080721A63DA6A42F48022DA621A68AD
:1048900042F080721A60314A13689801FCD5304B9F
:1048A000DA6822F0070242F00202DA609A6922F422
:1048B00040429A619A699104FCD52A4DFFF7EEFEB9
:1048C0000446A84202D8284801F056FE234B9A69B4
:1048D00022F470629A619A6922F00F0242F0080293
:1048E0009A61DA6922F0700242F04002DA61DA6914
:1048F00022F4E06242F48062DA619A6922F0700286
:1049000042F040029A611A6A22F0700242F04002BC
:104910001A621A6922F0070242F003021A611A6948
:1049200002F03802182AFAD1AC4202D90E4801F03E
:1049300023FE0B4BDA6822F0070242F00202DA6033
:104940009A6922F440429A619A699204FCD5074B15
:104950000020074A1A6003B030BD00BF004402586F
:10496000004802587FB2E60E80B2E60EA01900247D
:104970000065CD1D08B5074807F0F7FD38B10648BA
:10498000FFF77AFD0448FDF731FA002008BD6FF00B
:104990001200FBE7ACD000089D4900080A2838B592
:1049A0000446074D04D1AB680D2128465B68984743
:1049B000AB68E1B202485B689847204638BD00BF4B
:1049C000ACD0000838B5036904465860084D284645
:1049D00007F0CBFD40B161682846AB680C311B681D
:1049E000984700EAE07038BD6FF01200FBE700BFA7
:1049F00044CF0008F7B517460C461D464668B7F584
:104A0000001F026928D101F003030F2204339B0029
:104A10009A4042EA9102374902F00303023351F807
:104A20002310130C93FAA3F3B3FA83F301EA1242AF
:104A300003F01F0322FA03F3B2689A4209D1204619
:104A400005F0A1FB2046FFF711FE0021204605F0EE
:104A5000A7FB002003B0F0BDB7F5800F44D0264976
:104A60002046FFF7F1FD002841D1244A6B46B66885
:104A700092E8030083E8030021481946826812681F
:104A80009047D8B904F003030F2104339B009940E9
:104A900041EA940101F003030A0C92FAA2F29B008E
:104AA000B2FA82F203F1B04302F01F02D3F8080415
:104AB000964020EA11410E43C3F80864B5F1806FB7
:104AC0000ED0B5F1C06F0DD005F17E43594259416A
:104AD0004900204605F064FB2046FFF7A1FDB8E73A
:104AE0000121F6E70321F4E76FF08500B2E76FF0EC
:104AF0000F00AFE700040058FBA3000808D8000827
:104B000044CF000870B54FF47A734C688E6805691D
:104B10005C432EBB4FF4FA40144A0023A4FB00016F
:104B2000FCF720FB042332461E46511CB0FBF3F376
:104B3000B3F5805F0ED27D3C0D49D2B2013B8C4271
:104B400011D8062A0FD8B3F5805F0CD20020C5E932
:104B5000012370BDCBB20A4606FA03F39BB2E4E729
:104B60006FF08500F5E76FF01500F2E740420F00A7
:104B700083FFF30138B5036988071C6804D5194819
:104B8000426D42F480224265CA0728D44CF6CC42DA
:104B9000226045F2555222605A6802F007026260B4
:104BA0009B68C3F30B03A36007F0A1FF0A22002355
:104BB000FCF7D8FA0546E06810F0070003D14AF682
:104BC000AA23236038BD07F092FF00230A22FCF7D6
:104BD000C9FA431B302BEED96FF01200F2E76FF0E9
:104BE0008500EFE70010005C2DE9F0438BB0044630
:104BF0000E469046DDF848C01F46D0F80890BCF13C
:104C0000000F1BD103AD01226146284607F098FD35
:104C10000E4B0195424600933146D9F814903B461D
:104C20002046C84738B94FF0FF324FF0FF332846CF
:104C300002F028FC09980BB0BDE8F083D9F81440C5
:104C4000A4460BB0BDE8F043604700BF8DA4000848
:104C500010B41346826894690A460249A44610BCFF
:104C6000604700BF95A400082DE9F04F894687B042
:104C700090469A4683680193534B87689A4200F2A4
:104C80009F80836805A99B6A9847002840F093801D
:104C9000059BB7F840400093B7F842301C44B7F882
:104CA00044301C440134B8F1000F00F08980BAF59B
:104CB0007A7F80F0858004FB08F4009B4FF6FF703C
:104CC000B3FBF4F4012C38BF012404FB08F1B7F85E
:104CD00046309C4206DD4FF6FF7398426BD16FF071
:104CE000850068E0009BB3FBF1FE01FB1E3383BB34
:104CF000B7F840304FF47A76B7F842500AFB0EFC12
:104D000002931D44019B1B8FADB2BCFBF6FC0393C9
:104D1000019B019EDA8E1FFA8EF3B6F83AB0A3EB30
:104D20000C0C1FFA8CFCDC4516D9B7F844606645BC
:104D300028BF664603F1FF3CACEB060C1FFA8CFC67
:104D400065450BD25E1BB7F84430013EB6B2B342A4
:104D50000DD201344144BAE75E46EBE7039D1544AA
:104D6000ADB265452AD95B1B9EB2B345F1D8B2EB13
:104D7000550F4FEA550303D2029A9A4228BF1A46AA
:104D80004FF47A7305FB0333B3FBFEF39A4534BF4C
:104D9000A3EB0A03AAEB03039842DAD9AD1A98B23F
:104DA000A9F80220A9F80450A9F80660A9F808405B
:104DB000002BCED1184607B0BDE8F08F6546D6E788
:104DC0006FF01500F7E700BF40420F002DE9F04FEC
:104DD000164689B010224FF0480AD0F810B00746A6
:104DE00089460DEB02000021984605F0B3F93268C0
:104DF000530602D109B0BDE8F08F3568C5F305252B
:104E00000AFB0591082201910DEB020005F067FBFA
:104E1000039A0199C2F30340029A12F0005F84469C
:104E20008DF814001EBF9DF8152042F002028DF887
:104E30001520039A900242BF9DF8152042F004020B
:104E40008DF81520039A039CD202C4F3066442BF76
:104E50009DF8152042F008028DF81520029A02985C
:104E600012F0804F049A1CD060F31C02BBF894012E
:104E70000492E0409DF8152000F0010042F001028C
:104E80008DF81520BBF89221E24002F00102A8B192
:104E90009DF81500C0F3400090420FD0C8F80050B4
:104EA000A5E7C0F38A4060F31C02DBF88C01E04008
:104EB0000492DBF8882100F00100E5E7104B13F8BD
:104EC0000C20082AEAD80332083106A824B202F4DA
:104ED000FE7205F004FB9DF8152012F0010F0BEB9C
:104EE000840215BFD2F8CC40D46DD2F85C21D2F840
:104EF000EC20002CD2D004A93846A047CEE700BF52
:104F000099E9000830B5B9B18B880D89013B0D4C8A
:104F1000013DC2691B0204EA05449BB22343CC88CD
:104F2000013C04F07F042343C3610B882BB9C169A2
:104F300002F07E430B43C36130BDC269013B42EACC
:104F40004363F8E70000FF012DE9F04F036985B0E6
:104F500005464FF0000A019343681C68236D13F067
:104F6000607F12D04FF0607303AA0DF10B01284649
:104F700023652B69D3E95F6705F065FB2EB13B46DE
:104F8000039A9DF80B102846B047236DD90427D407
:104F9000236D1A0407D54FF400432365019B03F1E9
:104FA000180002F049FA236D180701D5082323657C
:104FB000236D190601D580232365236D9A0002D540
:104FC0004FF000532365236D9B0302D54FF400334C
:104FD0002365236D164A1342C0D105B0BDE8F08F9A
:104FE0004FF480532365D5F810806B6847461E68E0
:104FF00057F818BBD6F8F4309B06C9D0D6F8F43071
:10500000C3F3042303F167020BEBC202D279C6F8A3
:10501000F83002F01F09384602F00EFA002108EBC2
:1050200089022846536CC2F844A0126D9847E1E704
:10503000009080032DE9F04F0E460469416885B069
:105040003079D1F800800F287579D4F800B098BF76
:105050004649C5F3400C8CBF40270F5C0021032D4F
:10506000CDE902114FEA851101F0400141EA4C11EE
:105070008DF80B1000F00F0161F07F018DF80E101C
:1050800065D8082F66D8082864D894F897110029A5
:1050900063D0D8F84410090662D404F1180002F075
:1050A000F1F9054600285ED104F1300A4FF0FF32D5
:1050B0004FF0FF33504602F009F9D8F8C4304FF0F2
:1050C0000001C3F3044994F8963194F896215B09E2
:1050D00069F30401581C63F3471160F347128DF81C
:1050E0000F1084F896217379326813F0010F029B38
:1050F00014BF62F31C0362F39C430822029348230B
:105100000DEB020103FB09F303F5547001935844BE
:1051100005F0E5F9019BFA1C06F1080103F556704C
:1051200022F00302584405F0DAF904EB89040E9BDF
:10513000504663640F9B2365012303FA09F3C8F803
:10514000D03005F0D7F9284605B0BDE8F08F6FF0F4
:105150008505F8E76FF01505F5E76FF07205F2E7E2
:105160006FF07105EFE76FF00A05ECE799E90008C9
:105170002DE9FF47D0F8108007464668404634685E
:1051800050F8045B07F0D5FA08F1300007F0D1FAC7
:10519000032208F11800114607F0D2FA70690028BE
:1051A00040F08F80A369DFF8889123F01003A3619A
:1051B00000F050FD8046A3691A0700F18C80A369B6
:1051C00043F00103A36107F092FC40F2E93A804604
:1051D0008946A369DB0740F18C80384605F06EFBF9
:1051E000316A4FF6FC726B1A134043F4E013C4F8B3
:1051F000843005F170035B1A134043F40023C4F8B4
:10520000883005F1B0035B1A134043F44033C4F80F
:10521000A03005F5C4735B1A134043F44033C4F85F
:10522000B03005F518735B1A1340C4F8AC3005F5BF
:105230004E735B1A134043F44033C4F8F03005F565
:1052400054735B1A134043F04343C4F8C030072340
:10525000C4F8C83040F27773C4F8BC30A36923F4B3
:105260006973A361236923F010032361D4F88030AC
:1052700043F02803C4F88030F389002B48D07268CB
:1052800001A9FFF7F1FC163030D0B38901A9002243
:105290002046ADF80430FFF735FE264B002163654C
:1052A0001123A3650323E3654FF0FF33C4F8E03017
:1052B00005F585632A460435AB421160FAD100201A
:1052C00006E007F052F900287FF46CAF6FF012008F
:1052D00004B0BDE8F08700F0BDFCA0EB0800484535
:1052E0007FF669AFA36943F01003A3616FF0040078
:1052F000EEE707F0FCFBB0EB080061EB090350455B
:1053000073F10003FFF665AFA36923F00103ECE737
:10531000328A002AB9D0ADF8063001A9738AADF8F7
:105320000820ADF80A30726805F0B9F8ADE700BFA3
:1053300080F0FA02999082032DE9F3414368054613
:1053400001AA0021DE69706805F0E7FC041E28DB75
:10535000019B00221979186800F092FC044600BBFA
:105360006B68154FD3F81C803B6D23F0405343F01E
:1053700080533B65114C204607F0F7F8A8B1A368AD
:10538000204608F108011B689847044648B9FB6AA3
:105390009B030DD52846FFF7EBFE044608B933689A
:1053A0009847204602B0BDE8F0816FF01204F8E79C
:1053B0006FF00404F5E700BF0044025844CF000832
:1053C0001FB50C4B0C29D3F8082828BF0C2112BAA2
:1053D0000C460192D3F8042812BA02920A46D3F876
:1053E000003801A91BBA039304F0A9FE204604B0BB
:1053F00010BD00BF00E0F11F0048704774DB0008DB
:10540000074B186840B90748D0F88008C0F3C810A7
:1054100018604FF400305860012010600B60704736
:10542000B81F002400E0F11F03681A6912F0C06F72
:1054300000D0196E04495961044B1A4214BF6FF031
:1054400004000020704700BF0F00EF1F0000EE15A2
:105450002DE9F84317461A46064688461C4605F0CD
:10546000E1FA70B38CB34FF01003EFF3118983F3BB
:105470001288BFF36F8F012383F31388144D6B6978
:1054800043F480736B61BFF34F8FBFF36F8F22467E
:1054900008F10061384604F052FE002383F31388BC
:1054A0006B6923F480736B61BFF34F8FBFF36F8F12
:1054B00089F31188BFF36F8F3069BDE8F843FFF7B8
:1054C000B3BF6FF01500BDE8F8832046FBE700BFCF
:1054D00000ED00E010B503691C6819B105F0BEFAD3
:1054E00028B110BDE368DB0706D40020F9E7E368C4
:1054F00043F00103E360F8E7024B636003F1883394
:105500006360F2E72301674570B5044606690F4DF5
:10551000284607F02AF890B1AB682846311D1B6871
:105520009847054670B920690C300122114607F0F2
:1055300007F929462046BDE87040FFF7CBBF6FF062
:10554000120070BD6FF00400FBE700BF44CF0008FD
:105550002DE9F0470369164607460C461D682C4B9B
:10556000D3F880282B4B03EA82238B424CD9EB687B
:10557000DA0703D56FF00400BDE8F08705F06EFA96
:105580000028F9DB04F1006404F120022346D3E98A
:105590000001B1F1FF3F08BFB0F1FF3FEAD108338E
:1055A0009342F4D1EB6843F00203EB60BFF34F8FFB
:1055B000A6F108091836F9E90223C4E90023BFF36C
:1055C0004F8F07F094FA0A220023FBF7CBFD10F16E
:1055D000640841F1000A2B695B0709D507F087FAD7
:1055E0000A220023FBF7BEFD80457AEB0101F2DAC7
:1055F000B14504F10804DED1384605F02FFAEB6816
:1056000023F00203EB60B7E76FF01500B4E700BFCB
:1056100000E0F11F00FCFF03013A2DE9F843814649
:105620000D46002056181F4FDFF87C80AE4201D295
:10563000BDE8F883D9F810301C68D7F8803808EA3C
:1056400083239D4227D2E368DB0727D4484605F031
:1056500005FA0028ECDBE36823F4E063E3606B0AFF
:10566000E26803F4E063134343F00403E360E36898
:1056700043F08003E360BFF34F8F484605F0EEF937
:10568000E368002823F4E06323F00403E360CFDB46
:1056900005F50035CAE76FF01500C9E76FF00400A3
:1056A000C6E700BF00E0F11F00FCFF03F8B50123CF
:1056B00006460C46174605F0CAF9002840D0002FD0
:1056C00041D0306905F0A7F900213046FFF702FF0D
:1056D000054648B101213046FFF7FCFE30690C3029
:1056E00001F0AAFE2846F8BD21463A463046FFF7AB
:1056F00093FF164905464B69DB0319D5144B04EAA1
:1057000003023C4404F5FF3404F5FF741C40A31A63
:10571000002B0DDD02F10062BFF34F8F203BC1F87B
:105720005C222032002BF9DCBFF34F8FBFF36F8F69
:1057300001213046FFF7CEFE002D08BF0546CDE71C
:105740006FF01505CEE73D46CCE700BF00ED00E069
:105750000000FEFFF7B506464468076946487860D2
:1057600006F003FF20B96FF01205284603B0F0BD24
:105770007868616883681B68984705460028F4D1FB
:10578000014601AAA06905F0C8FA002801DA054619
:10579000EBE7019B2A461979186800F071FA002896
:1057A000F5DB2268136823F001031360B86806F084
:1057B000DCFE0028D7D0D7E902018368DB6803B19B
:1057C0009847216851E8003F43F00C0341E800325C
:1057D000002AF7D12369022B48D0012B12BF0020E9
:1057E0004FF480504FF4C062216810430B6823F0DF
:1057F000805323F4B05303430B604B6823F44053AE
:105800004B60237B2BB173681A68936843F4407331
:1058100093603968304605F0DCF9237D23B12268B6
:10582000936843F008039360637D23B12268536853
:1058300043F400435360A37D23B12268536843F4CB
:1058400080335360E37D23B12268536843F400330F
:1058500053602268136843F0010313602368DA6918
:105860009102FCD5DA695202FCD57EE74FF48050F4
:105870004FF48062B8E700BF44CF00082DE9F04143
:105880000B790C464568012B066900F0A7809A1E2B
:1058900051425141890294F805C094F80680BCF148
:1058A000020F96BF734A4FF4005732F81C70B8F1DC
:1058B000020FE27900F09580B8F1040F00F0BA8091
:1058C000002B40F09B80012A2CF0020C40F0C3809A
:1058D000BCF1000F00F0AE80B8F1010F40F2AA80D9
:1058E0004FF4407ED5F800C06AB3DFF88C81C44520
:1058F00027D0A8F54C48C44523D008F58068C44596
:105900001FD008F58068C4451BD008F58068C445E1
:1059100017D008F54448C44513D0A8F51C48C44521
:105920000FD008F58068C4450BD008F51C48C44565
:1059300007D008F58068C44503D0DFF84081C4452E
:1059400078D1012A76D1DCF8002022F00102CCF8CF
:1059500000204268D2F800C0DCF8002002F4C062E7
:10596000914206D0DCF8002022F4C0620A43CCF851
:105970000020426811684A6802F44052974204D0FD
:105980004A6822F440523A434A60426811680A6801
:1059900002F01022934204D00A6822F0102213432E
:1059A0000B6043681A68936803F440739E4505D002
:1059B000936823F4407343EA0E03936021683368CD
:1059C000994203D005F005F9236833602A68002066
:1059D000136843F001031360BDE8F0814FF4C06128
:1059E00059E70BBB012A2CF0020C2FD1BCF1000FA0
:1059F00020D04FF4407E4FF0805373E7033B012AE1
:105A0000DBB20CD1012B15D94FF4407E1CF0FD0FF9
:105A100010D0B8F1010F0DD94FF4805362E7012B7C
:105A200008D94FF0000EF1E7033B012ADBB204D0A6
:105A3000012B19D86FF08500CEE7012BFAD91CF0A5
:105A4000FD0FF7D04FF4407E00234BE7BCF1000F71
:105A5000F0D09E46CFE7BCF1000FEBD0B8F1010FBC
:105A6000E8D99E4673463DE71CF0FD0FE2D04FF0AB
:105A7000000EF7E7ECDF000800100140000C0058B2
:105A80004FF0E02310B59A691969986911F4803FC5
:105A9000084B094901D1824206D21A680C68224497
:105AA0001A604FF0E02212691B680A681344181A42
:105AB00010BD00BFC01F0024CC1F0024094B1022C2
:105AC000002083F823204CF24F32074B1A60074B1B
:105AD00018604FF0E0235A6198611A6942F007029A
:105AE0001A61704700ED00E0CC1F0024C01F0024A5
:105AF00008B5FFF7C5FF0C4B0C4A1868116808443D
:105B00004CF25031106000221A60094A1368C01A22
:105B1000B0FBF1F001FB0033136002F0F1F9BDE8D6
:105B20000840FEF739BA00BFC01F0024C81F002478
:105B3000C41F00242DE9F041324E002953D0421CED
:105B40000AD14FF0E022136923F0010313614FF0F3
:105B50007F433360BDE8F0813468012849DDB0F54A
:105B6000A77F49DC00F1FF384FF01003EFF31185F8
:105B700083F31288BFF36F8FFFF782FF4FF0E023AC
:105B8000214900229F690B681844204B1A60204B62
:105B90001B68C21A33D44CF2503C1B1A0CFB08226F
:105BA00002F543424F32B2FBFCF20CFB023340F6EB
:105BB0003542934223D9174A934228BF13464FF0E8
:105BC000E0223360013B966953610023B742A7EBA3
:105BD0000607936138BF3F193844086085F3118880
:105BE000BFF36F8FB6E7431C3468B6D14FF4A7708C
:105BF000B8E74FF00008B7E74FF4A778B4E740F6EE
:105C00003543DCE7CC1F0024C81F0024C01F00243C
:105C1000C41F002460D2FE0010B54FF01003EFF354
:105C2000118483F31288BFF36F8FFFF729FF074BAF
:105C3000074A1B6812689B1A034484F31188BFF358
:105C40006F8F4CF25030B3FBF0F010BDC81F002432
:105C5000C41F002410B54FF01003EFF3118483F339
:105C60001288BFF36F8FFFF70BFF044B1B681844BC
:105C700084F31188BFF36F8F10BD00BFC81F0024CD
:105C80002DE9F047044600EBC10600251C4FB44245
:105C900001D1002014E02068C30600F01F0911D4D0
:105CA000656845F02005C0F3471AC0F343200A2871
:105CB00023D857F82080B8F1000F0DD16FF01200F3
:105CC000BDE8F087B9F1100F04D0B9F1110FEAD196
:105CD0006568E8E73025E6E7404606F046FC002820
:105CE000ECD04B462A460AF00F01404604F09CFBDC
:105CF000002804F10804CADAE2E76FF01500DFE7D4
:105D000018DC000870B504468CB0856806F0EFFE1C
