:020000040802F0
:200000003DB8F39600000000000400002402030000000000013E00000000000000000000F6
:200020000000000000000000000000000000000000000000000000000000000000000000C0
:200040000000000000000000000000000000000000000000000000000000000000000000A0
:20006000000000000000000000000000000000000000000000000000000000000000000080
:20008000000000000000000000000000000000000000000000000000000000000000000060
:2000A000000000000000000000000000000000000000000000000000000000000000000040
:2000C000000000000000000000000000000000000000000000000000000000000000000020
:2000E000000000000000000000000000000000000000000000000000000000000000000000
:200100000000000000000000000000000000000000000000000000000000000000000000DF
:200120000000000000000000000000000000000000000000000000000000000000000000BF
:2001400000000000000000000000000000000000000000000000000000000000000000009F
:2001600000000000000000000000000000000000000000000000000000000000000000007F
:2001800000000000000000000000000000000000000000000000000000000000000000005F
:2001A00000000000000000000000000000000000000000000000000000000000000000003F
:2001C00000000000000000000000000000000000000000000000000000000000000000001F
:2001E0000000000000000000000000000000000000000000000000000000000000000000FF
:200200000000000000000000000000000000000000000000000000000000000000000000DE
:200220000000000000000000000000000000000000000000000000000000000000000000BE
:2002400000000000000000000000000000000000000000000000000000000000000000009E
:2002600000000000000000000000000000000000000000000000000000000000000000007E
:2002800000000000000000000000000000000000000000000000000000000000000000005E
:2002A00000000000000000000000000000000000000000000000000000000000000000003E
:2002C00000000000000000000000000000000000000000000000000000000000000000001E
:2002E0000000000000000000000000000000000000000000000000000000000000000000FE
:200300000000000000000000000000000000000000000000000000000000000000000000DD
:200320000000000000000000000000000000000000000000000000000000000000000000BD
:2003400000000000000000000000000000000000000000000000000000000000000000009D
:2003600000000000000000000000000000000000000000000000000000000000000000007D
:2003800000000000000000000000000000000000000000000000000000000000000000005D
:2003A00000000000000000000000000000000000000000000000000000000000000000003D
:2003C00000000000000000000000000000000000000000000000000000000000000000001D
:2003E0000000000000000000000000000000000000000000000000000000000000000000FD
:20040000C0DF0024F52A0308E55C0408C92A0308C92A0308C92A0308C92A030800000000AA
:2004200000000000000000000000000049270308C92A030800000000F5260308213F0308B2
:20044000ED270308ED270308ED270308ED270308ED270308ED27030865960208FD95020841
:2004600031960208ED270308ED270308ED270308ED270308ED270308ED270308ED270308D2
:20048000ED270308ED270308ED270308354C0208ED270308ED270308ED270308ED270308F8
:2004A000ED270308293C0208ED270308ED270308553C0208ED270308ED270308ED27030878
:2004C000ED27030881480208ED270308ED270308ED270308ED270308694A0208154A020888
:2004E00085950208ED270308ED270308ED270308ED270308ED270308ED270308ED270308FF
:20050000ED270308ED270308ED270308ED270308ED270308ED2703087D3C0208ED2703083F
:20052000ED270308ED270308ED270308ED270308ED270308ED270308ED270308ED270308C3
:20054000ED270308ED270308ED270308ED270308ED270308ED270308ED270308ED270308A3
:20056000ED270308ED270308ED270308ED270308ED270308ED270308ED270308ED27030883
:20058000ED270308ED270308ED270308ED270308ED270308ED270308ED270308ED27030863
:2005A000ED270308ED270308ED270308ED270308ED270308ED270308ED270308ED27030843
:2005C000ED270308ED270308ED270308ED270308ED270308ED270308ED270308ED27030823
:2005E000ED270308ED270308ED270308ED270308ED270308ED270308ED270308ED27030803
:20060000ED270308ED270308ED270308ED270308ED270308ED270308ED270308ED270308E2
:20062000ED270308ED270308ED270308ED270308ED270308ED270308ED270308ED270308C2
:20064000ED270308ED270308ED270308ED270308ED270308ED270308ED270308ED270308A2
:20066000ED270308ED270308ED270308ED270308ED270308ED270308ED270308ED27030882
:20068000ED270308ED270308ED270308ED270308ED270308ED270308ED270308ED27030862
:2006A000ED270308ED270308ED270308ED270308ED270308ED270308ED270308ED27030842
:2006C0001D4B0208ED270308ED270308FFFFFFFFFFFFFFFFFFFFFFFFFFFFFFFFFFFFFFFF7E
:2006E000FFFFFFFFFFFFFFFFFFFFFFFFFFFFFFFFFFFFFFFFFFFFFFFFFFFFFFFFFFFFFFFF1A
:2007000090F800F06DE9024520F007016FF0000C10F0070491F820F040F049804FF0000461
:200720006FF00700D1E9002391F840F000F1080082FA4CF2A4FA8CF283FA4CF3A2FA8CF317
:200740004BBBD1E9022382FA4CF200F10800A4FA8CF283FA4CF3A2FA8CF3E3B9D1E9042391
:2007600082FA4CF200F10800A4FA8CF283FA4CF3A2FA8CF37BB9D1E9062301F1200182FA2D
:200780004CF200F10800A4FA8CF283FA4CF3A2FA8CF3002BC6D0002A04BF04301A4612BA21
:2007A000B2FA82F2FDE8024500EBD2007047D1E9002304F00305C4F100004FEAC50514F0E4
:2007C000040F91F840F00CFA05F562EA05021CBF63EA050362464FF00004A9E7000000004F
:2007E000A2EB0300704700BF02780B78012A28BF9A42F5D16DE9044540EA0104CDE9026755
:200800006FF0000C4FEA447212B380EA010414F0070F6AD100F0070420F0070004F00305E7
:2008200021F007014FEAC505F0E8042314F0040FF1E804670CFA05F462EA040266EA040697
:200840000AD063EA0403624667EA0407664603E0F0E80423F1E8046782FA4CF582EA060461
:20086000A4FA8CF46CBB83FA4CF583EA0705A5FA8CF595B950E9022351E9026782FA4CF5D0
:2008800082EA0604A4FA8CF483FA4CF583EA0705A5FA8CF52543DBD09CB92DBAB5FA85F4F6
:2008A00024F0070427FA04F1DDE9026723FA04F303F0FF0001F0FF01FDE80445A0EB010023
:2008C000704724BAB4FA84F424F0070426FA04F1DDE9026722FA04F202F0FF0001F0FF0106
:2008E000FDE80445A0EB0100704714F0030F3CD110F0030428D150F8082B51F8083B82FAE1
:200900004CF582EA0305A5FA8CF55DB950F8042C51F8043C82FA4CF582EA0305A5FA8CF59A
:20092000002DE8D02DBAB5FA85F424F0070423FA04F122FA04F202F0FF0001F0FF01FDE8B9
:200940000445A0EB010070474FEAC40420F0030050F8082B21F0030151F8083B0CFA04F4DD
:2009600062EA040263EA0403C9E710F003041AD0A1EB040120F00300E40750F8042B06D054
:200980000FD28B785FFAA2F4E41A06D12BB1CB785FFAB2F4E41A00D11BB920465DF8104BD8
:2009A000704701F1040150F8042BCC0721F0030151F8043B48D824D222F07F4482FA4CF5FA
:2009C00094EA1325A5FA8CF50AD165B951F8043B84EA0204B4EB036F0ED150F8042BEBE713
:2009E0004FEA132355E035F07F454DD10878FDE80445C0F1000070474FEA126203F0FF0394
:200A000047E002EA1C4482FA4CF594EA1345A5FA8CF50AD165B951F8043B84EA0204B4EB1C
:200A2000034F0CD150F8042BEBE74FEA134330E015EA1C4528D10B884FEA124229E04FEAE4
:200A4000124203EA1C4324E002F0FF0482FA4CF594EA1365A5FA8CF50AD165B951F8043BA9
:200A600084EA0204B4EB032F09D150F8042BEBE74FEA13630DE015F0FF0F05D10B684FEADD
:200A8000122223F07F4304E04FF00000FDE80445704712BA1BBA82FA4CF482EA0304A4FAD7
:200AA0008CF5B5FA85F402FA04F203FA04F34FEA1260FDE80445A0EB136070470000000019
:200AC00001F0FF01102A2BDB10F0070F08D010F8013B013A8B422DD010F0070F42B3F6D1DC
:200AE000F0B441EA012141EA014122F007047FF000070023F0E80256083C85EA010586EA89
:200B0000010685FA47F5A3FA87F586FA47F6A5FA87F68EB9EED1F0BC01F0FF0102F0070283
:200B200032B110F8013B013A83EA010313B1F8D10020704701387047002D06BF35460338E6
:200B4000073815F0010F07D1013015F4807F02BF013015F4C03F0130F0BC0138704700BFAA
:200B600081F0004102E000BF83F0004330B54FEA41044FEA430594EA050F08BF90EA020FA4
:200B80001FBF54EA000C55EA020C7FEA645C7FEA655C00F0E2804FEA5454D4EB5555B8BF7A
:200BA0006D420CDD2C4480EA020281EA030382EA000083EA010180EA020281EA0303362D31
:200BC00088BF30BD11F0004F4FEA01314FF4801C4CEA113102D0404261EB410113F0004F9B
:200BE0004FEA03334CEA133302D0524263EB430394EA050F00F0A780A4F10104D5F1200ED9
:200C00000DDB02FA0EFC22FA05F2801841F1000103FA0EF2801843FA05F359410EE0A5F120
:200C200020050EF1200E012A03FA0EFC28BF4CF0020C43FA05F3C01851EBE37101F000452C
:200C400007D54FF0000EDCF1000C7EEB00006EEB0101B1F5801F1BD3B1F5001F0CD34908A6
:200C60005FEA30004FEA3C0C04F101044FEA445212F5800F80F09A80BCF1004F08BF5FEA85
:200C8000500C50F1000041EB045141EA050130BD5FEA4C0C404141EB0101013C28BFB1F5FE
:200CA000801FE9D291F0000F04BF01460020B1FA81F308BF2033A3F10B03B3F120020CDA99
:200CC0000C3208DD02F1140CC2F10C0201FA0CF021FA02F10CE002F11402D8BFC2F1200CAD
:200CE00001FA02F120FA0CFCDCBF41EA0C019040E41AA2BF01EB0451294330BD6FEA0404E7
:200D00001F3C1CDA0C340EDC04F11404C4F1200220FA04F001FA02F340EA030021FA04F337
:200D200045EA030130BDC4F10C04C4F1200220FA02F001FA04F340EA0300294630BD21FA55
:200D400004F0294630BD94F0000F83F4801306BF81F480110134013D4EE77FEA645C18BF33
:200D60007FEA655C29D094EA050F08BF90EA020F05D054EA000C04BF1946104630BD91EA6D
:200D8000030F1EBF0021002030BD5FEA545C05D14000494128BF41F0004130BD14F58004CA
:200DA0003CBF01F5801130BD01F0004545F0FE4141F470014FF0000030BD7FEA645C1ABF46
:200DC000194610467FEA655C1CBF0B46024650EA013406BF52EA033591EA030F41F4002135
:200DE00030BD00BF90F0000F04BF0021704730B54FF4806404F132044FF000054FF0000162
:200E000050E700BF90F0000F04BF0021704730B54FF4806404F1320410F0004548BF4042AD
:200E20004FF000013EE700BF42004FEAE2014FEA31014FEA02701FBF12F07F4393F07F4F27
:200E400081F06051704732F07F4208BF704793F07F4F04BF41F40021704730B54FF460743B
:200E600001F0004521F000411CE700BF50EA010208BF704730B54FF000050AE050EA01021D
:200E800008BF704730B511F0004502D5404261EB41014FF4806404F132045FEA915C3FF407
:200EA000D8AE4FF003025FEADC0C18BF03325FEADC0C18BF033202EBDC02C2F1200300FA53
:200EC00003FC20FA02F001FA03FE40EA0E0021FA02F11444BDE600BF70B54FF0FF0C4CF45C
:200EE000E06C1CEA11541DBF1CEA135594EA0C0F95EA0C0F00F0DEF82C4481EA030621EA09
:200F00004C5123EA4C5350EA013518BF52EA033541F4801143F4801338D0A0FB02CE4FF08B
:200F20000005E1FB02E506F00042E0FB03E54FF00006E1FB03569CF0000F18BF4EF0010EB5
:200F4000A4F1FF04B6F5007F64F5407404D25FEA4E0E6D4146EB060642EAC62141EA555178
:200F60004FEAC52040EA5E504FEACE2EB4F1FD0C88BFBCF5E06F1ED8BEF1004F08BF5FEA4D
:200F8000500E50F1000041EB045170BD06F0004646EA010140EA020081EA0301B4EB5C04FC
:200FA000C2BFD4EB0C0541EA045170BD41F480114FF0000E013C00F3AB8014F1360FDEBFDE
:200FC000002001F0004170BDC4F10004203C35DA0C341BDC04F11404C4F1200500FA05F35E
:200FE00020FA04F001FA05F240EA020001F0004221F0004110EBD37021FA04F642EB0601B9
:201000005EEA430E08BF20EAD37070BDC4F10C04C4F1200500FA04F320FA05F001FA04F266
:2010200040EA020001F0004110EBD37041F100015EEA430E08BF20EAD37070BDC4F120052D
:2010400000FA05F24EEA020E20FA04F301FA05F243EA020321FA04F001F0004121FA04F2D0
:2010600020EA020000EBD3705EEA430E08BF20EAD37070BD94F0000F0FD101F00046400072
:2010800041EB010111F4801F08BF013CF7D041EA060195F0000F18BF704703F000465200D4
:2010A00043EB030313F4801F08BF013DF7D043EA0603704794EA0C0F0CEA135518BF95EA50
:2010C0000C0F0CD050EA410618BF52EA4306D1D181EA030101F000414FF0000070BD50EA53
:2010E000410606BF1046194652EA430619D094EA0C0F02D150EA013613D195EA0C0F05D190
:2011000052EA03361CBF104619460AD181EA030101F0004141F0FE4141F470014FF00000F9
:2011200070BD41F0FE4141F4780170BD70B54FF0FF0C4CF4E06C1CEA11541DBF1CEA135587
:2011400094EA0C0F95EA0C0F00F0A7F8A4EB050481EA030E52EA03354FEA013100F08880E2
:201160004FEA03334FF0805545EA131343EA12634FEA022245EA111545EA10654FEA002640
:201180000EF000419D4208BF964244F1FD0404F5407402D25B084FEA3202B61A65EB0305E3
:2011A0005B084FEA32024FF480104FF4002CB6EB020E75EB030E22BFB61A754640EA0C0059
:2011C0005B084FEA3202B6EB020E75EB030E22BFB61A754640EA5C005B084FEA3202B6EBBA
:2011E000020E75EB030E22BFB61A754640EA9C005B084FEA3202B6EB020E75EB030E22BF69
:20120000B61A754640EADC0055EA060E18D04FEA051545EA16754FEA06164FEAC30343EA74
:2012200052734FEAC2025FEA1C1CC0D111F4801F0BD141EA00014FF000004FF0004CB6E7C7
:2012400011F4801F04BF01430020B4F1FD0C88BFBCF5E06F3FF6AFAEB5EB030C04BFB6EB29
:20126000020C5FEA500C50F1000041EB045170BD0EF0004E4EEA113114EB5C04C2BFD4EB67
:201280000C0541EA045170BD41F480114FF0000E013C90E645EA060E8DE60CEA135594EA38
:2012A0000C0F08BF95EA0C0F3FF43BAF94EA0C0F0AD150EA01347FF434AF95EA0C0F7FF44F
:2012C00025AF104619462CE795EA0C0F06D152EA03353FF4FDAE1046194622E750EA410670
:2012E00018BF52EA43067FF4C5AE50EA41047FF40DAF52EA43057FF4EBAE12E780F00040C5
:2013000002E000BF81F0004142001FBF5FEA410392EA030F7FEA226C7FEA236C6AD04FEADD
:201320001262D2EB1363C1BFD218414048404140B8BF5B42192B88BF704710F0004F40F439
:20134000000020F07F4018BF404211F0004F41F4000121F07F4118BF494292EA030F3FD00F
:20136000A2F1010241FA03FC10EB0C00C3F1200301FA03F100F0004302D5494260EB4000B0
:20138000B0F5000F13D3B0F1807F06D340084FEA310102F10102FE2A51D2B1F1004F40EB2A
:2013A000C25008BF20F0010040EA03007047490040EB0000013A28BFB0F5000FEDD2B0FAAC
:2013C00080FCACF1080CB2EB0C0200FA0CF0AABF00EBC25052421843BCBFD040184370474D
:2013E00092F0000F81F4000106BF80F400000132013BB5E74FEA41037FEA226C18BF7FEAEE
:20140000236C21D092EA030F04D092F0000F08BF0846704790EA010F1CBF0020704712F04F
:201420007F4F04D1400028BF40F00040704712F100723CBF00F50000704700F0004343F039
:20144000FE4040F4000070477FEA226216BF08467FEA23630146420206BF5FEA412390EAED
:20146000010F40F4800070474FF0000304E000BF10F0004348BF40425FEA000C08BF70476D
:2014800043F0964301464FF000001CE050EA010208BF70474FF000030AE000BF50EA0102DB
:2014A00008BF704711F0004302D5404261EB41015FEA010C02BF84460146002043F0B6430F
:2014C00008BFA3F18053A3F50003BCFA8CF2083AA3EBC25310DB01FA02FC634400FA02FCA7
:2014E000C2F12002BCF1004F20FA02F243EB020008BF20F00100704702F1200201FA02FC40
:20150000C2F1200250EA4C0021FA02F243EB020008BF20EADC7070474FF0FF0C1CEAD052EB
:201520001EBF1CEAD15392EA0C0F93EA0C0F6FD01A4480EA010C400218BF5FEA41211ED0AF
:201540004FF0006343EA501043EA5111A0FB01310CF00040B1F5000F3EBF490041EAD3715A
:201560005B0040EA010062F17F02FD2A1DD8B3F1004F40EBC25008BF20F00100704790F0B6
:20158000000F0CF0004C08BF49024CEA502040EA51207F3AC2BFD2F1FF0340EAC2507047AF
:2015A00040F400004FF00003013A5DDC12F1190FDCBF00F000407047C2F10002410021FA83
:2015C00002F1C2F1200200FA02FC5FEA310040F1000053EA4C0308BF20EADC70704792F0BE
:2015E000000F00F0004C02BF400010F4000F013AF9D040EA0C0093F0000F01F0004C02BFC2
:20160000490011F4000F013BF9D041EA0C018FE70CEAD15392EA0C0F18BF93EA0C0F0AD0C0
:2016200030F0004C18BF31F0004CD8D180EA010000F00040704790F0000F17BF90F0004FCB
:20164000084691F0000F91F0004F14D092EA0C0F01D142020FD193EA0C0F03D14B0218BFDB
:20166000084608D180EA010000F0004040F0FE4040F40000704740F0FE4040F440007047B6
:201680004FF0FF0C1CEAD0521EBF1CEAD15392EA0C0F93EA0C0F69D0A2EB030280EA010C60
:2016A00049024FEA402037D04FF0805343EA111143EA10130CF000408B4238BF5B0042F100
:2016C0007D024FF4000C8B4224BF5B1A40EA0C00B3EB510F24BFA3EB510340EA5C00B3EBFA
:2016E000910F24BFA3EB910340EA9C00B3EBD10F24BFA3EBD10340EADC001B0118BF5FEA7A
:201700001C1CE0D1FD2A3FF650AF8B4240EBC25008BF20F0010070470CF0004C4CEA5020FE
:201720007F32C2BFD2F1FF0340EAC250704740F400004FF00003013A37E792F0000F00F06F
:20174000004C02BF400010F4000F013AF9D040EA0C0093F0000F01F0004C02BF490011F411
:20176000000F013BF9D041EA0C0195E70CEAD15392EA0C0F08D142027FF47DAF93EA0C0F9C
:201780007FF470AF084676E793EA0C0F04D14B023FF44CAF08466EE730F0004C18BF31F01D
:2017A000004CCAD130F000427FF45CAF31F000437FF43CAF5FE700BF4FF0FF3C06E000BF7C
:2017C0004FF0010C02E000BF4FF0010C4DF804CD4FEA40024FEA41037FEA226C18BF7FEA8B
:2017E000236C11D001B052EA530C18BF90EA010F58BFB2EB030088BFC81738BF6FEAE1704E
:2018000018BF40F0010070477FEA226C02D15FEA402C05D17FEA236CE4D15FEA412CE1D0A0
:201820005DF8040B704700BF844608466146FFE70FB5FFF7C9FF002848BF10F1000F0FBD9C
:201840004DF808EDFFF7F4FF0CBF012000205DF808FB00BF4DF808EDFFF7EAFF34BF012015
:2018600000205DF808FB00BF4DF808EDFFF7E0FF94BF012000205DF808FB00BF4DF808ED3D
:20188000FFF7D2FF94BF012000205DF808FB00BF4DF808EDFFF7C8FF34BF012000205DF856
:2018A00008FB00BF4FEA40024FEA41037FEA226C02D15FEA402C08D17FEA236C02D15FEA02
:2018C000412C02D14FF0000070474FF0010070474FEA4002B2F1FE4F0FD34FF09E03B3EB10
:2018E00012620DD94FEA002343F0004310F0004F23FA02F018BF404270474FF00000704758
:2019000012F1610F01D1420205D110F0004008BF6FF0004070474FF00000704742000ED2F3
:20192000B2F1FE4F0BD34FF09E03B3EB126209D44FEA002343F0004323FA02F070474FF033
:201940000000704712F1610F01D1420202D14FF0FF3070474FF00000704700BF7BB972B93B
:201960000029BEBF00204FF0004106E008BF00281CBF6FF000414FF0FF3000F057B8ADF1C6
:20198000080C6DE904CE002909DB002B1ADB00F0AFF9DDF804E0DDE9022304B070474042B5
:2019A00061EB4101002B1BDB00F0A2F9DDF804E0DDE9022304B0404261EB4101524263EBA3
:2019C00043037047524263EB430300F091F9DDF804E0DDE9022304B0404261EB4101704749
:2019E000524263EB430300F083F9DDF804E0DDE9022304B0524263EB4303704753B94AB90D
:201A0000002908BF00281CBF4FF0FF314FF0FF3000F00CB8ADF1080C6DE904CE00F068F917
:201A2000DDF804E0DDE9022304B07047704700BF4FF0FF3C06E000BF4FF0010C02E000BF15
:201A40004FF0010C4DF804CD4FEA410C7FEA6C5C4FEA430C18BF7FEA6C5C1BD001B050EA07
:201A6000410C0CBF52EA430C91EA030F02BF90EA020F0020704710F1000F91EA030F58BF5F
:201A8000994208BF90422CBFD8176FEAE37040F0010070474FEA410C7FEA6C5C02D150EAA0
:201AA000013C07D14FEA430C7FEA6C5CD6D152EA033CD3D05DF8040B704700BF8446104699
:201AC00062468C461946634600E000BF01B5FFF7B7FF002848BF10F1000F01BD4DF808ED4C
:201AE000FFF7F4FF0CBF012000205DF808FB00BF4DF808EDFFF7EAFF34BF012000205DF838
:201B000008FB00BF4DF808EDFFF7E0FF94BF012000205DF808FB00BF4DF808EDFFF7CEFF4C
:201B200094BF012000205DF808FB00BF4DF808EDFFF7C4FF34BF012000205DF808FB00BFBC
:201B4000844641EA000313F003036DD1403A41D351F8043B40F8043B51F8043B40F8043BBA
:201B600051F8043B40F8043B51F8043B40F8043B51F8043B40F8043B51F8043B40F8043B69
:201B800051F8043B40F8043B51F8043B40F8043B51F8043B40F8043B51F8043B40F8043B49
:201BA00051F8043B40F8043B51F8043B40F8043B51F8043B40F8043B51F8043B40F8043B29
:201BC00051F8043B40F8043B51F8043B40F8043B403ABDD2303211D351F8043B40F8043BB9
:201BE00051F8043B40F8043B51F8043B40F8043B51F8043B40F8043B103AEDD20C3205D3C9
:201C000051F8043B40F8043B043AF9D2043208D0D2071CBF11F8013B00F8013B01D30B881A
:201C200003806046704700BF082A13D38B078DD010F003038AD0C3F10403D21ADB071CBF3A
:201C400011F8013B00F8013B80D331F8023B20F8023B7BE7043AD9D3013A11F8013B00F839
:201C6000013BF9D20B7803704B7843708B788370604670474FEA410C7FEA6C5C02D150EADA
:201C8000013C0AD14FEA430C7FEA6C5C02D152EA033C02D14FF0000070474FF00100704765
:201CA0004FEA410212F5001215D211D56FF47873B3EB625212D94FEAC12343F0004343EA77
:201CC000505311F0004F23FA02F018BF404270474FF00000704750EA013005D111F000407A
:201CE00008BF6FF0004070474FF00000704700BF2DE9F04786468C460846089E154674461E
:201D00001946002B40F0C2808542B2FA82F245D94AB1C2F1200300FA02FC2EFA03F3954006
:201D200043EA0C0C94404FEA154EA8B2BCFBFEF8230C0EFB18CC08FB00F943EA0C43994575
:201D400028D9EB1808F1FF3704D2994502D9A8F102072B44A3EB0903A4B2B3FBFEFC0EFB0F
:201D60001C330CFB00F044EA0344A04214D92C190CF1FF3304D2A04202D9ACF102032C44C0
:201D8000241A43EA07401EB1D440002334607360BDE8F0874746DDE76346F1E792BB431B8B
:201DA00001214FEA154EAFB2B3FBFEFC200C0EFB1C330CFB07F840EA0343984562D9EB1847
:201DC0000CF1FF3004D2984502D9ACF102002B44A3EB0803A4B2B3FBFEFC0EFB1C330CFB45
:201DE00007F744EA0344A7424ED92C190CF1FF3304D2A74202D9ACF102032C44E41B43EA14
:201E00000040C0E7C2F1200320FA03F1954090402EFA03F303434FEA154EAFB2B1FBFEFC4B
:201E20000EFB1C10190C0CFB07F841EA0041884504FA02F422D969180CF1FF3004D28845CA
:201E400002D9ACF102002944A1EB08019BB2B1FBFEFC0EFB1C110CFB07F743EA01439F4286
:201E60000ED9EB180CF1FF3104D29F4202D9ACF102012B44DB1B41EA004192E76046E3E75F
:201E80006146F7E76046A3E76346B7E7834206D916B9002108467BE7C6E900E0F9E7B3FAE6
:201EA00083F78FB9834201D3724508D8BEEB020460EB030301209C461EB9002168E7384668
:201EC000FAE7C6E9004CF8E7C7F1200CBB4022FA0CF41C432EFA0CF120FA0CF3B840014373
:201EE0004FEA14490EFA07F5B3FBF9F81FFA84FE09FB18300B0C08FB0EFA43EA00439A4551
:201F000002FA07F240D9E31808F1FF3004D29A4502D9A8F102002344A3EB0A0389B2B3FB7A
:201F2000F9F809FB183308FB0EFE41EA03418E452CD9611808F1FF3304D28E4502D9A8F14A
:201F40000203214443EA0040A0FB0298A1EB0E014145CE46434602D306D14D4504D2B9EBFF
:201F6000020E68EB04030138002EA6D0B5EB0E0261EB030101FA0CFC22FA07F34CEA0303C5
:201F8000F940C6E9003198E74046C5E74346D9E72DE9F04F016C9FB016461F46CDE904673B
:201FA0002B9D039049B1426C4A600123934004468B601EF0EBFE00232364B7F10009B4BF83
:201FC000012300232B60764BBCBF29F00049CDF8149033EA090300F0AA80DDE904340022C5
:201FE000184621460023CDE90801FFF777FD804668B12A9A012313602C9B13B12C9A694B91
:020000040802F0
:202000001360694B0A930A981FB0BDE8F08F1CAB01931DAB00930398DDE908231FF0EAF933
:202020005FEA1955824640F09880DDE91C85454405F23243202B40F38383C3F1400309FAFF
:2020400003F905F2124326FA03F349EA0300FEF7C9FE0123013DA1F1F8711193534B00226F
:20206000FEF782FD48A3D3E90023FEF735FF48A3D3E90023FEF77AFD064628460F46FEF7BF
:20208000C1FE45A3D3E90023FEF726FF02460B4630463946FEF76AFD06460F46FFF700FE21
:2020A00000228346002330463946FFF721FD002840F01A83A8EB0508BBF1160F08F1FF3477
:2020C00000F28B813A4D05EBCB05D5E90023DDE90801FFF70DFD002870D00023002C0BF158
:2020E000FF3B1093C0F27E8100230B93BBF1000F6ADA0B9BA3EB0B030B93CBF10003CDE93D
:202100000EB3289B092B4FF0000B65D8052B40F31C83043B28930025289B023B032B00F23F
:202120002386DFE813F060045D04540438042A9AC9F3130942F20F7359EA060913601CD1CF
:202140002C9B002B00F02B861A4B0A9308332C9A0A9813601FB0BDE8F08FDDE90812C2F34C
:202160001303084643F07F51CDF84480A5F2FF35DDF8708041F4401170E72C9B002B40F0E0
:20218000E7830D4B0A933EE761436F63A787D23FB3C8608B288AC63FFB799F501344D33F1D
:2021A0000000F07F41A6040840A604080000F83F909A040884A6040890A60408B8F1000F2E
:2021C00040F3608410900B9000230F93289BCDF838B0092B5C4499D90023CDE928330125D8
:2021E0004FF0FF330C950693039B00215964069B189303981EF0A4FD0A90002800F0BD852E
:20220000039B0A9A1A64069B0E2B00F21581002D00F012810E9A002A40F33B84B24D02F037
:202220000F0305EBC303D3E9008913461511DA0540F1FA83AD4BDDE90801D3E90823FEF7E2
:2022400075FFCDE9120105F00F0503277DB1A74EEB0708D540464946D6E90023FEF73CFEF6
:202260000137804689466D1006F10806F0D142464B46DDE91201FEF759FF80468946109BCF
:2022800043B19B4B002240464946FFF731FC002840F0F1843846FEF7B5FD42464B46FEF70A
:2022A0001BFE944B0022FEF761FC069B0646A1F15077002B00F0A9800E9B1993069B12938D
:2022C0000A9B894D49464046CDE914675E1CFFF7E7FC129905EBC10353E902120746CDE938
:2022E0001612FEF78FFD02460B4640464946FEF73BFC89460C993037DDE916238046FFB20A
:20230000002900F053847C490020FEF70FFFDDE91423FEF729FC0A9D02460B46CDE91423A1
:202320002F7042464B46FFF701FC002840F09784CDE91AB4CDF858A0129DDDE914AB0027E3
:202340002AE00137AF4280F2DE846C4B504659460022FEF7C1FD694B002282468B464046C0
:202360004946FEF7B9FD89468046FFF799FC0446FEF748FD02460B4640464946FEF7F4FBED
:20238000303406F8014B52465B4680468946FFF7AFFB002840F0B48442464B4654490020BB
:2023A000FEF7E2FB52465B46FFF7A2FB0028C8D0199BDDF858A00A9A374603F1010802E03E
:2023C000974200F07C843E4617F8013D392BF7D00133DBB23B70454675E10123002C1093F8
:2023E000BFF682AEC8F101030B9300247EE63846FEF708FD42464B46FEF76EFD3D4B00227A
:20240000FEF7B4FB0646A1F150773D4B404649460022FEF7A9FB32463B4680468946FFF797
:2024200085FB002840F05A8440464946324607F10043FFF75DFB28BB1D9B002BC0F2928046
:202440000E9A0E2A00F38E80274D0E9B05EBC305D5E90034CDE90434299B002B19DA069B63
:20246000002B16DC0ED1264B0022DDE90401FEF733FD02460B46DDE90801FFF743FB002819
:2024800000F02C844FF000090A9E4F46299BDD4325E2DDE90445DDE9088922462B46404667
:2024A0004946FEF743FEFFF7FBFB0646FEF7AAFC22462B46FEF710FD0A9F0B4602464946D8
:2024C0004046FEF751FB06F1300307F8013B069B012B00F012830125CDF818A09946DDE936
:2024E00004ABA8462CE000BF909A0408689A04080000F03F00001C400000E03F0000244022
:202500000000144052465B4620462946FEF70EFEFFF7C6FB0646FEF775FC52465B46FEF7C1
:20252000DBFC08F101080B46024629462046FEF71BFB06F13003C84507F8013B00F0DB828A
:20254000B94B0022FEF7C8FC0022002304460D46FFF7C4FA0028D5D00E9DDDF818A00135CB
:202560003E46B0E00C9A002A40F0D28000230F9D0B9E0C931F4656B1002C08DDA6420B9AD4
:202580003346A8BF2346D21A0B92F61AE41A0F9B53B10C9B13B1002D40F0E88251460F9A3B
:2025A00003981EF083FD8246039801211EF09AFC8146BBF1000F40F0B681289B012B40F3BE
:2025C000CC810120204410F01F0000F09A80C0F12003042B40F3DA810B9BC0F11C000344B5
:2025E0000B93064404440B9B002B05DD514603981A461EF0B5FD8246002C05DD49460398A6
:2026000022461EF0ADFD8146109B002B40F07081069B002B40F348810C9B002B40F0A480EE
:202620000E9D0135DDF82880069CDDF80CB0012607E0514600230A2258461EF0B1FB013686
:202640008246494650461DF021FEA64200F1300308F8013BEDDB069A002AC8BF16460A9A00
:20266000D8BF012602EB060B002451460122039804931EF075FD494682461EF0E9FD00289B
:2026800040F3E3810A9A02E05A4500F0E9815E460BF1FF3B16F8013C392BF5D001338BF81F
:2026A0000030DDF80C80494640461EF06FFB57B12CB1BC4203D0214640461EF067FB03984E
:2026C00039461EF063FB039851461EF05FFB002333702A9B1D602C9B002B3FF494AC0A9866
:2026E0001E601FB0BDE8F08F5846FEF78BFB32463B46FFF7F3F900287FF4DCAC0BF1FF3B1C
:20270000D8E41C230B9A1A440B921E441C446AE7289A012A40F3A981069A0F9B551EAB4217
:20272000C0F26B81002AA3EB050580F2DD820B9B069A9E1A039801211EF0D4FB07461AE782
:20274000C3F1200306FA03F081E40125E4E43946002303980A221EF023FB189B002B07469C
:2027600040F3EF820E950693002E00F33F81BBF1000F40F0DF81B8460A9E069C731E1C4414
:20278000049B0C9403F00103039C0F93494650461DF07CFD3946834650461EF059FD42464D
:2027A0004946054620461EF073FDC26801460BF13003002A3AD1089050460B931EF048FD67
:2027C0000899069020461EF0E1FA069A0B9B002A5AD1289A1AB90F9A002A00F09A82002D37
:2027E00045DB0C9AB346B2420BF8013B00F0B981514600230A2220461EF0D2FA4745824643
:2028000039464FF000034FF00A02204636D01EF0C7FA4146074600230A2220461EF0C0FA20
:202820005E468046B2E700BF00002440039806931EF0ACFA002D069B06DB049A289902F08A
:2028400001020D432A432AD151460122039804931EF086FC494682461EF0FAFC0028049B1F
:2028600040F3E880392B00F02F820BF131030E9D06F8013B3C460135474612E71EF090FACD
:202880005E460746804681E7002DC0F27D8228990D430F990D4300F07782002AA1DD392B3D
:2028A00000F012820133E2E7289B022B7FF7B4AE069B002B40F01D814946052203981EF0D6
:2028C0006FFA0146814650461EF0C2FC002840F310810A9E0E9D312306F8013B0135039881
:2028E000494601351EF052FA002F7FF4E8AEEAE6494650461EF0ACFC0028BFF689AE51462B
:20290000002303980A221EF04BFA0E9B5D1E0C9B8246002B7FF41BAF189B002B40F3FF81EE
:202920000E9D06937EE601465A4603981EF0BEFB289B012B81466CDD4FF0000BD9F810304C
:2029400009EB830318691EF07BFAC0F1200039E6924B0A930333FFF7FABB049B002B7FF471
:2029600030AEDDE90412C2F31303002B7FF429AE8B4B134023B10B9B01330B93013401238F
:20298000BBF1000F40F0AE819B461AE63FF42BAEC0F13C03B6E601230C93299B0E9A13441E
:2029A00018930133012B1E460693B8BF0126172E40F3D581012204235B0003F11400B04204
:2029C000114602F10102F7D9039B596411E401230C93299B002B33DD189306931E46E6E753
:2029E00000230C93D9E700230C93F2E73946039832461EF0B5FB0746B9E60F9B069A0F9590
:202A0000EB1A9B440B9B1E46134414440B93002590E6049B002B8FD1DDE90401C1F3130321
:202A20000A46002B88D1A3E7DDE908230227CDE912230BE47FF41BAFDA077FF518AF11E7F3
:202A4000012329930693FFF7CFBB03D1049BDB073FF518AE5E461BF8013D302BFAD020E60E
:202A60000A9A3123013513701BE6119A002A00F0F98003F233430B9A0F9D16461A441C4490
:202A80000B9257E6C8F1010304460B931090FFF79BBB00F0EB800E9B424D5E4206F00F0390
:202AA00005EBC303D3E90023DDE90801FEF714FA3511CDE9120100F04D813B4E002302270D
:202AC00080468946E80709D5D6E9002340464946FEF702FA01378046894601236D1006F147
:202AE0000806EFD1002B7FF4CAABDDE91289FFF7C6BB0A9ECAE4DDF818A00E9D02460B46F6
:202B0000FEF734F802460B46CDE906230135DDE90423A846FFF70AF840B9DDE90423DDE967
:202B20000601FEF7DBFF18B1F10701D50A9A4AE43E46C8E5796803981EF002F9054600282D
:202B400000F026813B6902339A0007F10C010C30FEF7F6FF0398294601221EF001FB804643
:202B60000AE60E9D3C46013547467EE5DDF80C8039462A4640461EF099FA5246014607466F
:202B800040461EF0DDF95146824640461EF0FEF80F9B5B1B0F933FF407ADFFE490A6040814
:202BA0000000F07F909A0408689A0408DDE91401FEF792F90A9B1F70129B012BCDE90C0137
:202BC00000F0C680129F0A9BCDF844B01F447C4B002240464946FEF77FF989468046FFF757
:202BE0005FF88346FEF70EF90BF1300B02460B4640464946FDF7B8FF06F801BBB7428046B0
:202C00008946E4D1DDF844B06E4B0022DDE90C01FDF7ACFF02460B4640464946FEF786FFF2
:202C2000002867D1DDE90C2366490020FDF79CFF02460B4640464946FEF75AFF48B91D9B2C
:202C4000002BFFF693AC0E9B0E2B3FF78FACFFF7FCBB3E46013F16F8013C302BF9D0199D2C
:202C6000013530E51C9BC3F1360304E7DDE908890227FFF704BB069B002B3FF4B8AB189B30
:202C8000002B7FF7D9AB0E9A1293013A4C4B1992404600224946FEF71FF980468946781CD8
:202CA000FEF7B0F842464B46FEF716F9464B0022FDF75CFF0646A1F15077FFF701BB08F108
:202CC00001083123FFF786BB0E9D0A9AB34639233C460BF8013B01354746D8E44FF0000934
:202CE0004F46F6E59B4629E60B9B1E46134414440B931FE5199B0A9A03F10108FFF763BBB0
:202D0000DDF858A0ABE7DDE91AB4DDF858A0FFF793BB392BD8D0002D3FF7A7ADA7E5289B9D
:202D2000022B0ADC189B069349460E9D1DF0AEFA0A9A00F1300313708DE4189B06930E959A
:202D4000B6E5289B022BF8DC189B0E9506930BE5374659E7DDE912890227FFF790BA039B10
:202D600000215964FFF745BA039B00255D64294618461DF0E5FF0A90A8B9144B1448002266
:202D80004FF4D57119F0BEFD002A7FF770AD5BE50E4B0F482A4640F2EA2119F0B3FD0D4B7B
:202DA0000A93FFF730B9039B0A9A1A644FF0FF330122299518930C920693FFF73DBB00BFF6
:202DC000000024400000E03F00001C4094A60408A8A6040884A6040800220D49134641F834
:202DE00022300132642AFAD10A4A0021116051609160D16011615161074A136053609360AE
:202E0000D360136153619361D361136253627047606100242061002438610024012809D8FD
:202E2000042907D800EB8000034B0144002043F8212070470120704738610024012808D897
:202E4000042906D800EB8000034B014453F8210070470020704700BF38610024632804D88C
:202E6000034B43F82010002070470120704700BF60610024632803D8024B53F82000704771
:202E80000020704760610024052804D8034B43F82010002070470120704700BF20610024A1
:202EA000052803D8024B53F8200070470020704720610024014BC3E900017047982E002485
:202EC000014BD3E900017047982E0024014BC3E900017047902E0024014BD3E900017047F6
:202EE000902E002421F07F4302460249C1E90023704700BFA02E0024014BD3E90001704795
:202F0000A02E0024094B9988DA889142084901D09A890AB10A783AB100220A705A60054904
:202F20009A81054A99601A60704700BFF0620024121E00241800000CA82E0024F0B587B07A
:202F40001F46164600240C9B164D082B0D9928BF0823CDE900031A4604A8CDE90444CDE91E
:202F60000267FEF7EDFD2868B8B12F896B89AE89DB1B9E4213DAEC8818200B4B3A46694639
:202F80003E4400FB0430FEF7DBFD631C0120AE819BB2802B28BF0023EB8007B0F0BD2046AD
:202FA000FBE700BFF0620024A82E00242DE9F041DFF85CE0DEF8004044B3BEF80C402CB3B8
:202FC000BEF804501826BEF808806E430135DFF844C0A4EB0804ADB206EB0C07AEF80C40B9
:202FE000802D7C6828BF0025AEF804500C60D7E90245C2E900455CF806201A600A6807F179
:203000001001FEF79DFD0120BDE8F0812046FBE7F0620024A82E00242A2804D8034B43F86A
:203020002010002070470120704700BF106300242A2803D8024B53F82000704700207047E8
:2030400010630024032804D8034B43F82010002070470120704700BF00630024032803D81E
:20306000024B53F8200070470020704700630024F0B5444E8BB0354601AC377801AE0FCDAF
:203080000FC40FCD0FC42B68002523603446EBB29F4219D86020FFF7EDFE01281ED13A4F88
:2030A00025463E460FCE0FC50FCE0FC533683E782B600025EBB29E420BD8002160200BB002
:2030C000BDE8F040FFF7CABE56F8043F01359847DDE754F8043F01359847EBE76120FFF746
:2030E000C9FE012815D1294F25463E460FCE0FC50FCE0FC533683E782B600025EBB29E42B3
:2031000002D800216120DAE754F8043F01359847F4E76220FFF7AEFE012815D11C4F2546EA
:203120003E460FCE0FC50FCE0FC533683E782B600025EBB29E4202D800216220BFE754F8BC
:20314000043F01359847F4E76320FFF793FE012815D1104F25463E460FCE0FC50FCE0FC573
:2031600033683E782B600025EBB29E4202D800216320A4E754F8043F01359847F4E70BB08E
:20318000F0BD00BF4C6400242864002404640024E0630024BC63002400487047F8140024DA
:2031A000014601481EF0FCBC4C640024014601481EF0F6BC28640024014601481EF0F0BC9B
:2031C00004640024014601481EF0EABCE0630024014601481EF0E4BCBC63002470B50D46BF
:2031E0001146046806462B68494383FB033218461346C4FB0403814202464FF0000098414E
:203200000ED20802090EFEF7F9FB064B80B233F810305C43E41334602A685343DB132B600B
:2032200070BD00BF72A70408091A47F6FF70F0B50F184FF6FE74A742DDE9056505D90D4CDB
:20324000B1F5004FACBF014621463468684201FB024290420CDCAA42A8BF2A46326001FBCF
:203260000322904203DC95422846A8BF1046F0BD0246F3E70180FFFF014B024A1A6070475F
:2032800014150024741D0024014B024A1A60704714150024B01D0024014B024A1A6070475C
:2032A00010150024F41C002470B541BB88B1214B1C688BB234F813505E000B460131A842B0
:2032C000F7D99BB291B213B9A1F1320003E01D2B03D102F2AA5000B270BD3444013B34F852
:2032E000022C322403EB8303101A521B03EB8303604301EB430190FBF2F00844EBE7012943
:2033000015D180B10C4B00211C688BB234F813505E000B460131A842F7D99BB291B2002B78
:20332000D2D01F2BD9D102F20E6210B2D4E70020D2E700BF14150024101500249A4A2DE9EE
:20334000F041137804460D460133DBB21370974A974B13601368013B1360002BFAD10A2050
:2033600020F040FA934A136803F00F03AB42C0F0BC8023685E0700F1C680236818070BD51C
:203380008D4A6169D36903F07003994204D9D36923F070030B43D3612368D9060BD5864AD4
:2033A000A169D36903F4E063994204D9D36923F4E0630B43D36123689A060BD57E4AE169A0
:2033C000136A03F07003994204D9136A23F070030B43136223689B070BD5774AE168936979
:2033E00003F00F03994204D9936923F00F030B4393612368DF0700F1948023689E0700F116
:20340000C5806C4B1A6802F00F02954218D21A6822F00F022A431A601A6802F00F02954282
:203420000ED01A6822F00F022A431A601A6822F00F022A431A601A6822F00F022A431A600A
:20344000236858070BD55C4A2169936903F07003994204D2936923F070030B439361236810
:2034600019070BD5544A6169D36903F07003994204D2D36923F070030B43D3612368DA06E2
:203480000BD54D4AA169D36903F4E063994204D2D36923F4E0630B43D36123689B060BD560
:2034A000454AE169136A03F07003994204D2136A23F070030B43136211F01AFC3E493F4AB2
:2034C0008B69C3F30323D35C03F01F03D8408B6903F00F03D35C3A4A03F01F0320FA03F3EF
:2034E0001360384B186000200BE0136823F00F032B431360136803F00F039D423FF439AF58
:203500000120BDE8F0812C4A2169936903F0700399427FF632AF936923F070030B4393611D
:203520002BE7254BA1689A6922F470620A439A6161681A6802291CD112F4003FE0D01A69F2
:2035400041F288381C4F22F007020A431A6120F041F906463B69626803F03803B3EBC20F89
:203560003FF44BAF20F036F9801B4045F2D90320C7E7032902D112F0007FDFE7012902D1E0
:2035800012F4807FDAE712F0040FD7E70A4AE168936903F00F039942BFF433AF936923F075
:2035A0000F030B4393612CE7F07B002470640024809698000020005200440258ECE6040881
:2035C000681B00246C1B00242DE9F04FF5B0244D10F0CEFF11F044F84C22002133A819F0B1
:2035E00025FD202200212BA819F020FDB822002146A819F01BFD00230093AB6923F44043DF
:20360000AB61AB6903F440430093009BAB699C04FCD5144C4FF0030A4FF001080226A36A34
:203620004FF480374FF0080B4FF4805923F0030333A843F00203A36289234296CDF8149103
:20364000CDE93EA30023CDE93387CDE93C66CDE9408ACDE943B311F0D7F828B11EF0F4FA17
:2036600000480258004402583F234FF4806205212BA8CDF8B8B0CDE92B3A4023CDE92F33C7
:20368000CDE93123FFF75AFE0028E7D14BF20B0200234F90CDF82081CDF89891CDE9462333
:2036A0001023CDE94938C023CDE94D304FF00053CDE9630046A86193CDE94B66CDE95D97EC
:2036C00011F0F8FC06460028C8D1642020F08AF8D4F8F0303F4A43F01003C4F8F030D4F86F
:2036E000F03003F010030193019BD4F8E83043F40033C4F8E830D4F8E83003F400330293AF
:20370000029BD4F8E83043F48023C4F8E830D4F8E83003F480230393039B0496AB6923F403
:203720004043AB61AB6903F440430493049B93699804FCD5284C4FF0030901260225A36AB3
:203740004FF4803708214FF4805823F0030333A843F00203A36289234295CDF81481CDE967
:203760003E930023CDE93367CDE93C55CDE94069CDE9431311F048F800287FF46FAF4FF416
:203780008062402349462BA8CDE93123FFF7D6FD00287FF463AF4BF20B0200234F904896D8
:2037A000CDF89881CDE946231023CDE94936C023CDE94D304FF0005346A8CDE94B55CDE902
:2037C0005D87619311F076FC054600287FF446AF04E000BF0048025800440258642020F04C
:2037E00001F8D4F8F030284643EA0803C4F8F030D4F8F03003EA08030593059BD4F8E83062
:2038000043F48043C4F8E830D4F8E83003F480430693069BD4F8E83043F40043C4F8E830D0
:20382000D4F8E83003F400430793079BD4F8F03043F40053C4F8F030D4F8F03003F40053A6
:203840000893089BD4F8E0303343C4F8E030D4F8E03033400993099BD4F8E03043F0020369
:20386000C4F8E030D4F8E03003F002030A930A9BD4F8E03043F00403C4F8E030D4F8E030A8
:2038800003F004030B930B9BD4F8E03043F00803C4F8E030D4F8E03003F008030C930C9BE4
:2038A000D4F8E03043F01003C4F8E030D4F8E03003F010030D930D9BD4F8D83043F02003C6
:2038C000C4F8D830D4F8D83003F020030E930E9BD4F8E03043F08073C4F8E030D4F8E03046
:2038E00003F080730F930F9BD4F8E83043F40013C4F8E830D4F8E83003F400131093109B58
:20390000D4F8E83043F48003C4F8E830D4F8E83003F480031193119BD4F8E83043F4000369
:20392000C4F8E830D4F8E83003F400031293129BD4F8E8303343C4F8E830D4F8E8303340FE
:203940001393139BD4F8E83043F00203C4F8E830D4F8E83003F002031493149BD4F8E8300D
:2039600043F00403C4F8E830D4F8E83003F004031593159BD4F8E83043F00803C4F8E8300D
:20398000D4F8E83003F008031693169BD4F8E83043F01003C4F8E830D4F8E83003F0100303
:2039A0001793179BD4F8E83043F02003C4F8E830D4F8E83003F020031893189BD4F8EC305D
:2039C00043F48073C4F8EC30D4F8EC3003F480731993199B236D23F0405343F0005323656F
:2039E000A36A23F0030343F00203A362E36A3B43E362E36A43F40033E362E36A43F4802331
:203A0000E362E36A43F40023E362E36A43F48013E362E36A43F40013E362236843F080738C
:203A20002360236843F080632360D4F8E0303343C4F8E030D4F8E03033401A931A9BD4F844
:203A4000E03043F00203C4F8E030D4F8E03003F002031B931B9BD4F8E03043F00403C4F848
:203A6000E030D4F8E03003F004031C931C9BD4F8E03043F00803C4F8E030D4F8E03003F045
:203A800008031D931D9BD4F8E03043F01003C4F8E030D4F8E03003F010031E931E9BD4F8AD
:203AA000D83043F02003C4F8D830D4F8D83003F020031F931F9BD4F8E03043F08073C4F8D0
:203AC000E030D4F8E03003F080732093209BD4F8E83043F40013C4F8E830D4F8E83003F4C9
:203AE00000132193219BD4F8E83043F48003C4F8E830D4F8E83003F480032293229BD4F835
:203B0000E83043F40003C4F8E830D4F8E83003F400032393239B636D23F440536365D4F81F
:203B2000E8303343C4F8E830D4F8E83033402493249BD4F8E83043F00203C4F8E830D4F89A
:203B4000E83003F002032593259BD4F8E83043F00403C4F8E830D4F8E83003F00403269354
:203B6000269BD4F8E83043F00803C4F8E830D4F8E83003F008032793279BD4F8E83043F019
:203B80001003C4F8E830D4F8E83003F010032893289BD4F8E83043F02003C4F8E830D4F8FC
:203BA000E83003F020032993299BD4F8EC3043F48073C4F8EC30D4F8EC3003F480732A93DE
:203BC0002A9B236D23F0405343F000532365A36A23F0030343F00203A362E36A3B43E36269
:203BE000E36A43F40033E362E36A43F48023E362E36A43F40023E362E36A43F48013E36215
:203C0000E36A43F40013E362236843F080732360236843F080632360236843F0805323605C
:203C200075B0BDE8F08F00BF084B6FF001023B2010B51A61FFF71EF9411C3B20FFF70EF96A
:203C4000034BBDE810401B68184700BF00000140806400244FF080436FF001023C2010B5B2
:203C60001A61FFF707F9411C3C20FFF7F7F8024BBDE810401B6818477C640024094B6FF05A
:203C800001023D2010B51A61FFF7F4F8411C3D20FFF7E4F8044B1B689847044BBDE8104021
:203CA0001B68184700100040746400247864002410B51F4C002201211920636C43F40043E0
:203CC0006364236843F001032360E36843F00103E3600EF0BFFC19200EF09AFC636C00229C
:203CE000022143F400431C206364236843F001032360E36843F00103E3600EF0ABFC1C2039
:203D00000EF086FC636C0022362043F4004311466364236843F001032360E36843F001037D
:203D2000E3600EF097FC3620BDE810400EF070BC00000140014B1860704700BF80640024B7
:203D4000014B1860704700BF7C640024014B1860704700BF74640024014B1860704700BFB5
:203D600078640024094A08B5138801339BB21380138841F288329BB2934206D900201DF0CE
:203D800031FFBDE808401DF034BF08BD0C7A0024F8B5114C114DD4E9002312F1320043F1E6
:203DA0000001C4E900012B780133DBB22B702B780A2B0BD90120FFF75DF8D4E9006782196E
:203DC00047EBE073C4E9002300232B70D4E90001BDE8F840FFF76EB8A83A0024F17B002483
:203DE000014B00221A8070470C7A002408B5FFF7EBFB024B00221A8008BD00BF0C7A00248A
:203E0000044808B5FFF7A2FF0348BDE80840FFF7A3BF00BF913D0208653D020813484FF095
:203E2000804340F2F11270B5114C40F21316036003F5805380252360002385614361C0E901
:203E40000163C0E9032324F07FFA08B11DF0FCFE3123C4E90160C4E90330C4E90505204683
:203E600024F072FA0028F1D170BD00BFD0640024846400244FF08042136843F00103136062
:203E800002F58052136843F001031360064B1A68D36843F00103D360044B1A68D36843F07D
:203EA0000103D360704700BFD0640024846400241FB5134B1A78FAB1002221201A7003236F
:203EC000104A8DF80C30104B1B7811780F4A1278920002EB410213440D4A127803EBC203C0
:203EE0008DF80D300EF0A2FBFF2303AAE82109480093022314F05EFD05B05DF804FB00BF5D
:203F0000F27B0024F57B0024F67B0024F47B0024F37B00241C650024292838B50C4607D8AE
:203F2000232806D8062828D007283ED0052831D038BD24380528FBD801A353F820F000BFB8
:203F4000BB3F0208633F0208313F0208313F0208BF3F0208593F02081F48BDE838401DF082
:203F600097BE1E4B1A788A42E2D0197001221C4B1A70BDE83840FFF79BBF1A4D2B788B4292
:203F8000D6D0002118481DF083FE154B01221A702C70EEE7124B01221A700022114B1A70DC
:203FA000FFF786FF21461048D7E7104B10481978C94301F001011970CFE70E48CDE70E4827
:203FC0001DF066FE0D4B1A78A242B1D0044A012111701C70CDE700BF589B0408F57B00249E
:203FE000F27B0024F47B0024689B0408F77B0024709B0408789B0408609B0408F37B002429
:020000040802F0
:204000002DE9F04188B000254FF48063122604244FF0030803A93E480595CDE90336CDE9BB
:20402000068414F0FDFA4FF4006303A938480595CDE90336CDE9068414F0F2FA354C364A6F
:204040000126364B20462562C4E90023A023A3608023C4E90365C4E90655636123F061FA43
:20406000054608B11DF0F0FD22684FF4004703A9136823F4F85343F47063136005900790FC
:204080002748CDF81880CDE9037614F0C9FA2A463946234823F0AEF830461FF0A3FB3246B0
:2040A00039461F4823F0A6F810274FF6067303AAE8212046ADF80C300223009714F07AFC41
:2040C000072303AAE821ADF80C3020460223009714F070FC334603AAE821204600978DF8DC
:2040E0000B508DF80C5014F065FC33460DF10B02E9212046009714F0F5FC0A4B1E700A4B67
:204100001D70FFF7D5FE9DF80B0008B0BDE8F081000402581C65002400580040A8A80010E0
:2041200000100258F27B0024F67B002408B5034B53F820309847C0B208BD00BF706500247B
:2041400008B5024B53F82030984708BD7065002408B500F083F900F0E5F800F0ADFB134B31
:20416000134A1A60134A5A60134A9A60134ADA60134A1A61134A5A61134A9A61134ADA6183
:20418000134A1A62134A5A62134A9A62134ADA62134A1A63134A5A63134A9A63134ADA6353
:2041A000134A1A64134A5A6408BD00BF7065002475450208654502084545020855450208DC
:2041C000191D04081D1D04080D1D0408131D04084D4302085D4302087D4302089D430208ED
:2041E000AD430208BD430208CD430208091D0408FD490208094A020810B50020FFF7A0FF48
:2042000001462020FEF72AFE0420FFF799FF01462120FEF723FE0520FFF792FF0146222075
:20422000FEF71CFE0220FFF78BFF01462320FEF715FE0320FFF784FF01462420FEF70EFE13
:204240000120FFF77DFF01462520FEF707FE0620FFF776FF01462620FEF700FE0720FFF717
:204260006FFF01462720FEF7F9FD0820FFF75EFF01462820FEF7F2FD0920FFF757FF0146AD
:204280002920FEF7EBFD0A20FFF750FF01462A20FEF7E4FD0B20FFF749FF01462B20FEF732
:2042A000DDFD0C20FFF742FF01462C20FEF7D6FD0D20FFF73BFF01462D20FEF7CFFD202074
:2042C000FEF7D8FDB0F5FA6F26DD0E20FFF72EFF01463320124CFEF7C1FD0F20FFF726FFBD
:2042E00001463420FEF7BAFD236C984701463520FEF7B4FD636C984701463620FEF7AEFDDC
:204300004020FEF7B7FD48B94120FEF7B3FD28B9BDE810401DF0D0BC0121DAE710BD00BFAF
:20432000706500247FB51022002102A818F07EFE4FF4007301A9044801930323049314F0CE
:204340006FF907B05DF804FB0004025808B502481DF0C5FC80B208BDB09B040810B5054857
:204360001DF0BDFC044604481DF0B9FC204480B210BD00BF989B0408A09B040810B5054865
:204380001DF0ADFC044604481DF0A9FC204080B210BD00BF909B0408889B040808B5024894
:2043A0001DF09DFC80B208BDC09B040808B502481DF095FC80B208BDB89B040808B50248F7
:2043C0001DF08DFC80B208BDA89B040808B502481DF085FC80B208BD809B04087FB50023F7
:2043E00001A9CDE9033305930A4BD3F8E02042F00402C3F8E020D3F8E030019003F0040316
:2044000005480093009B0323029314F009F907B05DF804FB004402580008025830B591B02F
:2044200005460C463822002102A818F0FFFD042340F2FF729C2109930748CDE903238023C5
:20444000CDE90B136946CDE9005412F0A9FD08B11DF0FAFB11B030BDB8650024334B73B5D7
:20446000D3F8E0200120324C012642F08072C3F8E020D3F8E03003F080730193019BFFF7E5
:20448000ADFF0220FFF7AAFF4FF08061084610F0DDF84FF00061084610F0D8F8254A4FF4FC
:2044A00080132046C4E9002300230822C4E90223C4E904624FF4807284F82030E362228316
:2044C000042284F83830E2614FF4805284F84430C4E90963C4E90C33C4E90F2312F02EFB7B
:2044E000054608B11DF0B0FB204622F069FC09211148FFF793FF40F20F111048FFF78EFFEB
:20450000304640F21521FFF789FF40F21B310C48FFF784FF40F2FF722946204612F070FC0E
:20452000204602B0BDE8704012F0BABC00440258B8650024006002580004002A0008302E69
:2045400002003004024BD3F8800080B2704700BF00600258024BD3F8840080B2704700BFE7
:2045600000600258024BD3F8840080B2704700BF00600258024BD3F88C00C0F30F10704756
:2045800000210240024BD3F88C0080B2704700BF002002407FB5002301A9CDE90333059385
:2045A0000A4BD3F8E02042F00402C3F8E020D3F8E030019003F0040305480093009B0323E1
:2045C000029314F02DF807B05DF804FB004402580000025830B58DB00C46002105462422F4
:2045E00003A80291CDE9001118F020FD69460C4812F0E8FF08B11DF027FB40F2FF720423F3
:20460000059003A908908DF82D000548CDE90354CDE9062311F040FE0028ECD10DB030BD08
:204620007C660024724B40202DE9F041D3F8D8208AB0704C012642F020024FF00408032767
:20464000C3F8D820D3F8D83003F020030493049BFFF7A0FF2020FFF79DFF1020FFF79AFF62
:2046600065484FF480134FF48072E7612283C4E9000300232046A36084F82030236384F88B
:204680004430C4E90468C4E90A33C4E90F3312F055FA054608B11DF0D7FA06215748FFF7C5
:2046A00099FF0C215648FFF795FF12215548FFF791FF40F2FF722946204612F0A1FB20463B
:2046C00012F036F9FF21204611F058FD204622F0F7FA4D4B1880204612F02AF9FF21204623
:2046E00011F04CFD204622F0EBFA484B1880204612F01EF9FF21204611F040FD204622F02D
:20470000DFFA434B1880204622F016FB12244FF4806305A93F480795CDE90534CDE90878BF
:2047200013F07EFF4FF4006305A93A480795CDE90534CDE90878384C13F072FF374A384B66
:2047400020462562C4E90023A023A3608023C4E90365C4E90655636122F0E3FE05460028EC
:2047600099D122684FF4004805A9136823F4F85343F470631360079009902A48089710273A
:20478000CDE9058613F04CFF2A464146254822F031FD30461FF026F832464146214822F0C9
:2047A00029FD4FF6067305AAE821ADF8143020460223009714F0FEF8334605AAE8212046C1
:2047C00000978DF80F508DF8145014F0F3F833460DF10F02E9212046009714F083F99DF8E2
:2047E0000F20114B28461A700AB0BDE8F08100BF004402587C660024002002400800900CFD
:204800000000B84F0000844B127A0024107A00240E7A002400040258286600240058004010
:20482000A8A8001000100258F87B0024024B1878C0F30010704700BFF87B0024024B18788D
:20484000C0F34010704700BFF87B0024014B1888704700BF127A0024014B1888704700BFD4
:20486000107A0024014B1888704700BF0E7A002408B5024B0BB1FFF7D5FE08BD25460208B3
:20488000014822F0C1BE00BFEC6600241FB50B0A8DF80E1003AA80218DF80D3010238DF8B5
:2048A0000C0000930323034814F084F805B05DF804FB00BFEC660024F0B5042687B0002400
:2048C0004FF48063122703250DEB060121480394CDE90137CDE9045613F0A2FE4FF400630B
:2048E0000DEB06011B480394CDE90137CDE9045613F096FE184E1948194B0462C0E900638D
:204900000123C0E90334A02383608023C0E90644436122F006FE044608B11DF095F9336864
:2049200002462946212023F4F85343F4706333600DF090FE21200DF06BFE204644F227711A
:20494000FFF7A4FF4FF42061052007B0BDE8F040FFF79CBF0004025800580040EC6600248C
:20496000A8A8001073B51F4E33689B691B041FD41D4D21200DF04CFE2B78012B1AD013F0E3
:20498000FD0F15D1194A022380213046148864BACDE900234FF48062A4B214F0F7FA4FF63E
:2049A00078739C4288BF0024114B1C8001232B7002B070BD0F4A80210D4C304613885BBAB4
:2049C00063800223CDE900234FF47F4214F0DEFA42F2602362889A421EBF074BFF221A80AF
:2049E0000223E4E7EC660024FD7B0024F97B0024167A0024FB7B0024147A0024014B188831
:204A0000704700BF167A0024014B1888704700BF147A0024104808B515F0E4FB0F4B197874
:204A20004A1CD2B21A700E4A1144507888701978312903D90121117000211970197811449B
:204A4000497811B901201970107006490248BDE808401DF0AEB900BFD4670024FF7B0024EB
:204A6000347C0024357C0024104808B515F0BAFB0F4B104A197850781144887019780131A1
:204A8000C9B219701978312903D9012111700021197019781144497811B901201970107063
:204AA00005490248BDE808401DF083B940670024FE7B0024007C0024017C002408B51DF0B5
:204AC000FBF8FFF79DFA014B187008BD687C002400200F4970B503460E4D42F21076086052
:204AE000D5F8C420920205D400B10B6000200A4B18600BE001330120B342F1D9064C2268B4
:204B00000244B2F5FA6F2260EAD90B6070BD00BF6C68002400A00040686800243D4B2DE939
:204B2000F0475B6C8EB0190602D53B4B1B68984700230620CDE90233FEF79CF9002863D141
:204B4000DFF8D880DFF8D890DFF8D8A02822002104A802AF18F06AFA4FF08043002201211E
:204B600005934FF400235046079313F0ABFB04463B4604AA4021504613F0F2FA0443079E13
:204B8000E4B2049D002C3FD105F07F030820052B18BF262B14BF01240024292B0CBF00244C
:204BA00004F00104FEF766F918B1454508BF44F0010425F07F431C4A23F0FF03934208BF67
:204BC00044F00104194B9D4203D003F580339D4208D14FF00053164AC3F814909A6172B6AF
:204BE00012F0B0FD002CB1D0FEF776F904468A46360CFEF765F92218019728464AEB0103CD
:204C00000096FEF79BF99FE706480EB0BDE8F04713F09ABB00D40040B069002418EC6318DF
:204C20001E49754070680024000C6000A14C3D1390CAF1F13D4B2DE9F0475B6C8EB019067E
:204C400002D53B4B1B68984700230620CDE90233FEF710F9002863D1DFF8D880DFF8D89099
:204C6000DFF8D8A02822002104A802AF18F0DEF94FF080430022102105934FF40023504655
:204C8000079313F01FFB04463B4604AA4121504613F066FA0443079EE4B2049D002C3FD12A
:204CA00005F07F030820052B18BF262B14BF01240024292B0CBF002404F00104FEF7DAF8DE
:204CC00018B1454508BF44F0010425F07F431C4A23F0FF03934208BF44F00104194B9D4217
:204CE00003D003F580339D4208D14FF00053164AC3F814909A6172B612F024FD002CB1D03A
:204D0000FEF7EAF804468A46360CFEF7D9F82218019728464AEB01030096FEF70FF99FE708
:204D200006480EB0BDE8F04713F00EBB00A00040B069002418EC63181E497540106900246A
:204D4000000C6000A14C3D1390CAF1F12DE9F04F844C8BB0844F012520460426276022F0EC
:204D6000D3F940F2011200234FF010084FF0160922824FF0400A49222760A57420466561E6
:204D800025636366636323646665C4F86080A666C4E90233C4E90692C4E90895C4E90A5585
:204DA000C4E90E35C4E9116AC4E91363C4E916837B6D43F000737B6512F0CEFF834608B1B3
:204DC0001CF042FF024602212046022722F01FF95A464146204613F075FA4FF00042412180
:204DE000204622F0F4F82A464146204622F0D4F91C22594603A818F019F94FF080436FF010
:204E0000604202A9204602930792059722F08AF8226820465B463946D5653A46CDF800B042
:204E200022F0BCF804460028CAD109224F494FF400601DF05DF809224C494FF480501DF0F7
:204E400057F822463946132012F03CFC132012F06BFC2246214613200DF0FCFB13200DF0ED
:204E6000D7FB32201EF0BEFC414B1A7802F0FF03002A73D13F4C40F201113F4A2182492161
:204E8000A66620462260A5746366C4F86080C4E907194FF4A061C4E910A6C4E91236C4E98A
:204EA0001436C4E90233C4E90559C4E90955C4E90B55C4E90E356163C4E91683536D43F0B6
:204EC0000073536512F048FF064600287FF478AF02462946204622F09AF832462946204642
:204EE00013F0F0F94FF000425146204622F06FF83A462946204622F04FF91C22314603A8C0
:204F000018F094F84FF080436FF0604202A9204602930792059522F005F823680522174900
:204F20004FF48050DF651CF0E3FF052213494FF400501CF0DDFF32463946A02012F0C2FBB8
:204F4000A02012F0F1FB32463146A0200DF082FBA0200DF05DFB32201EF044FC00200BB0EA
:204F6000BDE8F08F1069002400A0004000000258131E00247068002400D40040000C02586B
:204F800010B5034B00241C70FFF7E0FE204610BD131E002408B5054822F063F8044B1B7899
:204FA00013B9044822F05DF8002008BD10690024131E00247068002408B5054822F06AF821
:204FC000044B1B7813B9044822F064F8002008BD10690024131E002470680024014B1860D2
:204FE000704700BFB06900240E4BD3F89C20B2F5807F03D10022C3F89C207047D3F89C20CD
:20500000B2F5007FF6D0D3F89C20B2F5407FF1D0D3F89C202AB10022C3F89C20024B1B682B
:205020001847704710690024B069002470B5134604460D4616460A46014607481CF000FF18
:20504000064B1B782BB933462A46214604481CF0F7FE002070BD00BF10690024131E0024ED
:205060007068002470B572B6084C4FF47A70084E084D6661A5611EF0B5FB4FF47A7066613C
:20508000A5611EF0AFFB00200AF04CFC00FC01201E49754090CAF1F110B5064C00F074F907
:2050A000204600F059FA5A2221460348FCF748FD10BD00BF697C0024697D00241FB500234B
:2050C000CDE901338DF80C3000F05EF9FFF7E4FF494A01ABD2F84E00D2F8521092F8562082
:2050E00003C302211A703120FDF7B8FE0822434901A818F071F918B902213120FDF7AEFE8C
:2051000008223F4901A818F067F918B907213120FDF7A4FE08223B4901A818F05DF918B966
:2051200001213120FDF79AFE0822374901A818F053F918B901213120FDF790FE082233495D
:2051400001A818F049F918B901213120FDF786FE08222F4901A818F03FF918B901213120D1
:20516000FDF77CFE08222B4901A818F035F918B903213120FDF772FE0822274901A818F04F
:205180002BF918B904213120FDF768FE0822234901A818F021F918B904213120FDF75EFE52
:2051A00008221F4901A818F017F918B905213120FDF754FE08221B4901A818F00DF918B9F8
:2051C00006213120FDF74AFE0822174901A818F003F918B908213120FDF740FE08221349E1
:2051E00001A818F0F9F818B909213120FDF736FE05B05DF804FB00BF697D00248CCB040864
:2052000096CB0408A0CB0408AACB0408B4CB0408BECB0408C8CB0408D2CB0408DCCB04080E
:20522000E6CB0408F0CB0408FACB040804CC040870B506460D461446FFF72EFF052E0AD8E7
:20524000DFE806F0030A0910161C0D49284618F049F81A23238070BD0A49284618F042F81C
:205260000C23F7E70849284618F03CF80F23F1E70649284618F036F81123EBE70449F8E7F7
:20528000697D0024B77D0024857D0024947D0024A57D002410B50C46052841D8DFE800F0F7
:2052A0000312401C283413881A2B39D81A2200211C4817F0BBFE5A2221461A48BDE8104075
:2052C00018F06EB813880C2B2AD8174800230C22036043608360F1E713880F2B20D80F225D
:2052E0000021124817F0A2FE3E2221460F48E5E71388112B14D8112200210D4817F096FE9B
:205300002F2221460A48D9E71388112B08D811220021084817F08AFE1E2221460548CDE731
:2053200010BD00BF697D0024B77D0024857D0024947D0024A57D002408B5084B5A22084901
:205340001846FCF7FDFB00F0C5F800211F20FDF785FDBDE80840FFF79FBE00BF697C002479
:20536000697D0024074B1A691268520703D520B19B681B6903E00028FAD09B68DB6804210B
:205380000048184794920408F0B58DB000254FF4806303260424122707A949480995CDE9E8
:2053A0000A64CDE9073713F03BF94FF4006307A943480995CDE90A64424C434ECDE907379E
:2053C00013F02EF92046266022F005F93F4B20462660D3F8E02042F00102C3F8E020D3F8AB
:2053E000E02002F001020092009AD3F8E02042F00202C3F8E020D3F8E02002F0020201927C
:20540000019AD3F8E02042F00402C3F8E020D3F8E02002F004020292029AD3F8E02042F043
:205420000802C3F8E020D3F8E02002F008020392039AD3F8E02042F01002C3F8E020D3F819
:20544000E02002F010020492049AD3F8E82042F48002C3F8E820D3F8E82002F480020592E4
:20546000059AD3F8E82042F40002C3F8E820D3F8E82002F400020692069AD3F8F42042F0AB
:205480008002C3F8F420D3F8F430256203F08003A56065610793079B0D4B63600123C4E9DC
:2054A0000655C4E9033522F03CF808B11CF0CCFB336823F4F85343F4706333600DB0F0BDD6
:2054C00000040258B46900240058004000440258A8A800102DE9F043DFF8788085B00546FF
:2054E000D8F800309C6914F400442ED121202E460A274FF008090DF099F82046FFF732FF0B
:20550000224608340123A12100964046A4B20836CDE9019713F07EFB05201EF063F9B4F54F
:20552000807FEDD14FF6FF7305F580752246A1210193012307480297009513F06BFB05201B
:205540001EF050F90120FFF70DFF002005B0BDE8F08300BFB46900247FB50D4E054633686F
:205560009C6914F4004411D121200DF05FF8FF234FF47A72A02130460095CDE90132012339
:20558000224613F023FC012004B070BD0020FBE7B469002410B528B9234BCD21234A244861
:2055A00017F0B0F919B9234BCE21204AF7E78A681F2A03D8204BCF211C4AF0E712F01F03F2
:2055C00003D01E4BD021194AE9E75209012A03F1010406D1DBB21F2B06D9194BD221134AAB
:2055E000DDE752082346F1E7D1E9042402B154614A690AB10C69146150F823208A4211D171
:205600004A691AB10F4BDF21084AC8E70A6940F823203AB901229A40D0F8803023EA020349
:20562000C0F8803010BD00BF0ECC040885D3040824CC04086ACC040882CC0408B7CC040805
:20564000F3CC04080FCD040810B528B91D4BB7211D4A1E4817F056F919B91D4BB8211A4A17
:20566000F7E78A681F2A03D81A4BB921164AF0E712F01F0303D0184BBA21134AE9E7520903
:20568000012A03F1010406D1DBB21F2B06D9134BBC210D4ADDE752082346F1E750F82320DD
:2056A0000A6100224A6150F8232002B15161012240F823109A40D0F880301343C0F8803024
:2056C00010BD00BF0ECC04089AD3040824CC04086ACC040882CC0408B7CC0408F3CC0408ED
:2056E00070B50446002852D010F00F0051D1CF2951D914F0030005D0284BF721284A294854
:2057000017F000F9C4E92002C4F8883004F17C02231F43F8040F9342FBD1A1F1B005B5F1B5
:20572000004F28BF4FF00045EB0609D1A5F120021D4B9A4206D91D4B40F20D11184ADEE72A
:20574000013DF1E714F00F0604F1B00104D0184B40F21111124AD2E72046C4F8B85084F82E
:20576000BC60C4E92C66C4E93066FFF76DFFD4F8803023B90F4B40F21911094ABFE7002200
:205780000023C4E92456C4E92666C4E92823204670BD0024FBE70446F9E700BF32CD040801
:2057A000A0D3040824CC0408E0FFFF7F62CD0408B8CD0408E7CD04082DE9F843894604461B
:2057C00030B98F4B4FF494718E4A8F4817F09AF8D0F89030B3F1004F04D98C4B40F22911DB
:2057E000884AF2E7002900F0E880103B8B42C0F0F08001F1100800234246012A03F101016F
:2058000010D809F10F02012602EA0802002A18BF0133DBB29E401F2E07D87D4B40F235116C
:20582000784AD2E752080B46E7E7B04504D9794B4FF49B71734AC8E7751E354004D0764B86
:2058400040F237116F4AC0E772091746012F05F101030CD1531E1340002B18BF0135EDB2F4
:205860001F2D07D96D4B4FF49D71664AADE77F081D46EBE7AF40D4F884001CF04AFBD4F897
:2058800080307F421F407A423A4000F0B280531E134006D0624B4FF4A2715A4A95E75208C9
:2058A0000B46012A03F10101F9D1DBB2AB4204D25C4B4FF4A371534A87E71F2B04D95A4B87
:2058C00040F247114F4A80E754F8235025B9574B40F24B114B4A78E7AB68B34204D2544B00
:2058E0004FF4A671474A70E7D80604D0514B40F24D11444A69E72B7B23B14F4B4FF4A7713B
:20590000404A62E729462046FFF744FEAB68AE609B1BD4F890209A4204D8484B4FF4AA71AB
:20592000384A52E7D90604D0454B40F25511354A4BE71F2B14D9A81910F00F0204D0414BB7
:2059400040F259112F4A40E78360027329681CF0E3FA014628461CF0DFFA2046FFF774FED1
:20596000D4F89430DA0604D0374B4FF4B171254A2BE73344D4F890209342C4F8943004D956
:20598000324B4FF4B2711F4A1FE7D4F89820934288BFC4F89830AB68984504D92C4B40F21B
:2059A0006B11184A11E701232B73D4F89C30994501D9C4F89C90103504E0D0F884001CF096
:2059C000A8FA0025D4F888001CF0A3FA2846BDE8F883D0F884001CF09CFAD4F89C30994511
:2059E0000BD8D4E92832013342F10002C4E92832E7E7D4F89C304B45F3D2C4F89C90F0E7C3
:205A00000ECC04088BD3040824CC040804CE04083FCE04086CCE04089BCE0408B5CE0408F9
:205A2000DFCE0408FDCE0408BDCE04081CCF040830CF040853CF04088BCF04089ECF040830
:205A4000C6CF0408F3CF040824D0040868D00408A6D004082DE9F0410C46054630B9704B89
:205A60004FF4C3716F4A704816F04CFFD0F89020B2F1004F04D96D4B40F28711694AF2E798
:205A8000002900F0CA808F07A1F1100804D0684B40F28D11634AE6E700F1B003984504D23B
:205AA000644B4FF4C7715F4ADDE713189033984504D9614B40F28F115A4AD4E711F8043C81
:205AC00023B95E4B40F29111564ACCE751F8103C9E0704D05A4B4FF4C971524AC3E751F85B
:205AE0000C3C980704D0574B40F293114D4ABAE751F8086C1F2E04D8534B4FF4CA71494AA6
:205B0000B1E7B24204D2514B40F29511454AAAE716F01F0604D04E4B4FF4CB71414AA2E764
:205B2000D5F884001CF0F5F954F8082C04F8046CD5F89430934204D2464B4FF4CF71394A5B
:205B400091E79B1AC5F8943054E904671FB33B7B0BBB002E46D096F80C80B8F1000F41D179
:205B600039462846FFF716FD31462846FFF712FDB268BB68134454F8082C1344BB6044F883
:205B8000088CC6F80880BB68D9061DD0324B40F2AD11244A67E7002E3DD0377B002F3AD1EC
:205BA00031462846FFF7F6FC54F8083CB268134444F8083CB76054F8083CDB0628D0244BA8
:205BC00040F2BF11174A4EE7316838461CF0A4F901462846FFF738FDD5F88800BDE8F04162
:205BE0001CF097B939462846FFF7D4FC54F8082CBB681344BB60002344F8083CBB68DA06DB
:205C000004D0154B4FF4DB71064A2CE73146DCE731684046DAE74146DBE7BDE8F08100BF26
:205C20000ECC04087AD3040824CC040804CE0408D9D0040803D1040882D104088CCF0408F0
:205C40003ED2040875D20408ACD20408DDD2040853CF04080FD3040842D30408014B186887
:205C6000FFF7F8BEC06A0024014B1868FFF7A4BDC06A00242DE9F041CAB000260446FC226A
:205C800031460BA80A9617F0D1F93146182204A80AAD17F0CBF963691A4A029323691A49D6
:205CA0001A481A4EDFF86080CDE9004300230AF06FF916481DF06FFE044644B9144B1A68E5
:205CC00012B11B6804A898474AB0BDE8F081059FD4E90921E819FBF733FF636A2146304689
:205CE0003B4406950593236A04931DF05CFE2146D8F80C300448984730461DF04CFE0446B2
:205D0000DBE700BF80841E00A46A0024086A00249C6A0024F0B5104E0F4685B01946347856
:205D20000F2C17D80D4D0E4B25F8340005EBC4056F604FF40A7505FB04330A4C00250293A4
:205D4000134602460848CDE900450AF05FFE33780133337005B0F0BDC37D00241C6A00240E
:205D6000B03A002480841E00A46A002400232DE9F043074689B00E4690464FF480511A4631
:205D800012486C46FFF7ACFC114BDFF8489018606846114A4D4611490AF0D8F80FCC0FC567
:205DA00094E807000E4B89F8048085E807004FF480710822C3E900120022C3E902221A6105
:205DC000084B1F605E6009B0BDE8F083901E0024C06A0024A46A00245D5C0208695C02087E
:205DE000086A00249C6A00242DE9F04F97B08846002118220AAE0590254D3046DFF894B0CE
:205E0000DFF89490DFF894A0CDE9081117F00EF908AB0C93C8232B70DBF80430304698476B
:205E2000002831D0002707AB10AC059A03934846434600960797CDE901740AF009FB0028D3
:205E400001DA16F057FD012817D1DDE90E23CDE912233AF83720BDF8421092B2914204D19E
:205E60000AEBC7022046526890470137102FF0D1D9F80C301599084898472C78013CE4B2D4
:205E80002C702B78002BC7D117B0BDE8F08F00BFC57D00249C6A0024A46A00241C6A0024EA
:205EA000124BD0B51B7886B0012B03D041F65553984218D104230E4C00260027ADF80030F3
:205EC000FF23ADF8020068468DF804302378CDE902678DF80530CDE90421FFF7CBFE2378E9
:205EE0000133DBB2237006B0D0BD00BF141E0024C47D0024014B01221A707047141E00248B
:205F0000014B00221A707047141E0024254BF0B55A7893F901C0D2090679D1E90071D3E907
:205F2000044507D13C1BDFF880E061EB0505A645AA410ED290F90520D0E90245C3E9024505
:205F400076B29A70012200205E701A70C3E904711FE066451CD11A7890F805C0012A19D1C8
:205F600057EA010216D093F902200132544202F01F0204F01F0458BF624294450AD1D3E92B
:205F80000203381ABDE8F04061EB030100F00EB80120F0BDD0E902454FFA8CF2C3E9024547
:205FA000CEE700BFC0090024404B4C002DE9F84F0B4644F61F6149F63F4402464118334E5D
:205FC00043F10000A14270F1000053D2DFF8C0C0304FDCE9000184184FEA831041EB0305EC
:205FE000910140EA9260CCE90045D7E900ABDCE900894FF4A47C11EB080140EB0900B2EB07
:020000040802F0
:206000000A044FEA801063EB0B0EA4FB0C5440EA916089010CFB0E44491944EB0000C7E904
:206020000023CA0BC31342EA4042002B1846114602DA514263EB430040F6A174A14270F175
:20604000000007DB002BA7BF4FF47A620023124A4FF0FF33052100243170104DD5E90001B7
:20606000861841EB0307C5E90067D5E90001FCF72DFF06E0317839B133780124013BDBB247
:2060800033702046BDE8F88F0124E6E7151E0024385D0024405D002460F0FFFF305D002409
:2060A0002DE9F047ADF5247D00244FF4BC72002146A8814D16F0BAFF4FF48772214602A8D2
:2060C0007E4FCDE9004416F0B1FF04212046FCF7B5FE042181460120FCF7B0FE2E69804607
:2060E0002020FCF7C7FEFBF7C3F93146FBF714FAD5F818A0386009EB0800FBF7B5F9704E0C
:206100005146DFF8C081FBF707FA0146FBF7FCF8032130602046FCF791FEAC69FBF7A4F970
:20612000DFF8A4912146FBF7F7F90321C8F800000120FCF783FEAC69FBF796F92146FBF7A2
:20614000EBF9C9F800002520FCF794FE04462320FCF790FE844280F294802520FCF78AFEB6
:2061600004462420FCF786FE844280F295802520FCF780FE84B22520FCF77CFE05462320A1
:20618000FCF778FE854240F38B802520FCF772FE05462420FCF76EFE85427FDD2520FCF7A0
:2061A00069FE4A4A01212046FDF77EF8DFF820A1FBF75EF94749FBF7AFF9CAF800002620DF
:2061C000454DFCF757FE6FF0C702002180B2FDF76BF8424CFBF74CF93E49FBF79DF92860B7
:2061E0002720FCF747FE6FF0C702002180B2FDF75BF8FBF73DF93749FBF78EF92060FCF7CA
:206200007BFE0323CDE9460109208DF88C32FCF731FE3B688DF88D025A9333684893DAF868
:2062200000305E93D8F800304993D9F800304A932B686293236866934FF07E53A29302230D
:206240005993A093FCF758FECDE96001FCF754FECDE96401FCF750FE4FF489736A4600939C
:20626000CDE95C0101A946A81DF078FCBDF8002001A940F24D40FFF713FE0DF5247DBDE865
:20628000F0872320FCF7F6FD04462420FCF7F2FD844201DA23206BE7242069E724207EE77B
:2062A0002320FCF7E7FD05462420FCF7E3FD8542F4DD232073E700BFE86A0024E46A002486
:2062C000E06A0024DC6A0024D86A0024D4FEFFFFD46A0024CDCCCC3DD06A0024CC6A0024F4
:2062E00030B50024ADF5097D4FF48372214602A8CDE9004416F09AFE4FF4887221460DEBF0
:20630000020016F093FEFCF7F7FD0E2346AA8693324B03F10805CDE944011868083353F844
:20632000041C1446AB4203C42246F6D118689B8820602820A3804FF48573294D0093FCF73B
:2063400099FD284C002844D03920FCF793FD00284FF039002BDAFCF78DFD40302BDB3A2029
:20636000FCF788FD00282CDA3A20FCF783FD403021DB02238DF81C3201232B702378642B5D
:2063800097BF0133C823237001238CBF23708DF81C326A4601A944A81EF04EFCBDF80020AD
:2063A00001A90120FFF77CFD0DF5097D30BDFCF761FD4028D3DD2B784BB102238DF81C322E
:2063C000DCE73A20FCF756FD4028D2DDF3E70123F4E7207028708DF81C02DAE7ABD3040854
:2063E000C97D0024C87D002430B50024ADF2644D4FF40972214603A8CDE9014416F016FE8C
:206400004FF40C72214607240DEB020016F00EFE0423CDF85C44CC932D4B8C931723ADF8BC
:20642000343303238DF836332A4B18689A889B79D7903720ADF860238DF86233FCF71AFDAC
:20644000850732D5244BCDF85C4418689A889B79D790ADF860238DF862330720FCF70AFD55
:20646000044680B100252C460720FCF703FDE840C30705D58CAB23440134E4B283F80851E7
:2064800001351F2DF0D14FF4806301AA02A98CA80193D6941DF0B8FEBDF8042002A90220A2
:2064A000FFF7FEFC0DF2644D30BD3720FCF7E2FC410703D5094BCDF85C44C6E73720FCF757
:2064C000D9FC0207C9D5064BCDF85C44BDE700BF4D434200B9D30408C0D30408C7D3040878
:2064E000CED3040830B50024ADF5097D40F207120546214602A8CDE9004416F097FD4FF440
:20650000887221460DEB020016F090FDFCF7F4FCCDE9440135BB04232C208DF81D32FCF785
:20652000A9FC001B4FF00903164A18BF012086938DF81C02106846AB5168127A03C31A703E
:2065400040F20B136A4601A944A800931DF0E8FFBDF8002001A94FF47B70FFF7A1FC0DF5DC
:20656000097D30BD05232B208DF81D32FCF782FC00384FF00903044A18BF012086938DF889
:206580001C02D7E7D5D30408DED3040810B50024ADF51E7D4FF49472214654A80094539461
:2065A00016F044FD4FF4887221460EA816F03EFDFCF7A2FC02232E2201948DF84030CDE9B3
:2065C0000E01214602A816F031FD324901A80A2416F088FE304B1868FBF77AF990FBF4F3B7
:2065E00004FB130003F130022C4B30308DF80A208DF80B001868FBF76BF990FBF4F304FB06
:20660000130003F13002264B30308DF80F208DF810001868FBF75CF990FBF4F304FB1300DC
:2066200003F130021F4B30308DF814208DF815001868FBF74DF990FBF4F304FB130003F1E7
:20664000300230308DF818208DF819000920FCF711FC30308DF81D000B20FCF70BFC30309D
:20666000202201A98DF8220011A8519216F0F6FE4FF496736A4653A90EA800931EF0C9FBDE
:20668000BDF8002053A941F6F870FFF709FC0DF51E7D10BDE7D30408D06A0024CC6A0024A7
:2066A000D46A0024E46A00240023022010B5094C2360FCF7D3FCA0600320FCF7CFFC064B30
:2066C0006060E360054B2361054B6361054BA36110BD00BFE86A0024913F75428D9C853C08
:2066E00000288D43D223683B08B50220FCF7C2FB40B12820FCF7BEFB20B1FFF7F1FD024B94
:2067000003221A7008BD00BFCA7D00247FB50220FCF7B0FB002831D0314B1A78002A5CD05A
:206720001A78013AD2B21A701B78013B052B25D8DFE803F003080D27364407B05DF804EB14
:20674000FFF7CEBD07B05DF804EBFFF7A9BC00236A4601A805930293CDE90333214B1B68DE
:2067600001930C230DEB030100931EF0A2FBBDF8002003A941F65550FFF792FB07B05DF830
:2067800004FB194A137823B11378013BDBB21370F4E70A23137007B05DF804EBFFF7F6BE31
:2067A0003720FCF767FB0028E8D0104A1378002BEAD107B05DF804EBFFF716BE1F20FCF78B
:2067C00059FB0028DAD00920FCF754FB0128D5DC07B05DF804EBFEF7AFBD0A221A70CDE788
:2067E000C77D0024E86A0024C67D0024CA7D00242DE9F04F0220CBB0FCF73CFB68B300268C
:20680000852204A8804F3146CDE9026616F00EFC9022314626A816F009FC31462E20FCF7F7
:206820001DFBFCF769FB794B04460D46C3E90045D3E90089D7E90001B8EB000269EB010394
:206840007349C1E90023C7E90045D1E900231A4306D101212E20FCF701FB4BB0BDE8F08F2B
:2068600031463046FCF7EAFA804601213046FCF7E5FA314640EAE87A0120FCF7DFFA012112
:2068800007460846FCF7DAFA022140EAE7793046FCF7D4FA5F4EFAF7EBFD02210090012058
:2068A000FCF7CCFAFAF7E4FD012101902E20FCF7D5FAD6F808B051464046FAF7EFFD59466B
:2068C000FAF72AFED6F808A0494680463846FAF7E5FD5146FAF720FE716881460098FAF7B4
:2068E0001BFE074671680198FAF716FE002106463846FAF7AFFF00286BD047493846FAF7CF
:20690000C7FF003818BF0120002867D100213046FAF7A0FF002863D03F493046FAF7B8FFF9
